{
  "_format": "hh3-artifact-1",
  "contractName": "MemeWar",
  "sourceName": "contracts/MemeWar.sol",
  "abi": [
    {
      "inputs": [
        {
          "internalType": "address",
          "name": "_agentMeme",
          "type": "address"
        },
        {
          "internalType": "address",
          "name": "_usdc",
          "type": "address"
        }
      ],
      "stateMutability": "nonpayable",
      "type": "constructor"
    },
    {
      "inputs": [],
      "name": "AlreadyVoted",
      "type": "error"
    },
    {
      "inputs": [],
      "name": "CannotVoteOwnMeme",
      "type": "error"
    },
    {
      "inputs": [],
      "name": "CaptionTooLong",
      "type": "error"
    },
    {
      "inputs": [],
      "name": "EmptyIPFSHash",
      "type": "error"
    },
    {
      "inputs": [],
      "name": "InvalidMemeIndex",
      "type": "error"
    },
    {
      "inputs": [],
      "name": "MustHoldTokens",
      "type": "error"
    },
    {
      "inputs": [],
      "name": "OnlyVault",
      "type": "error"
    },
    {
      "inputs": [
        {
          "internalType": "address",
          "name": "owner",
          "type": "address"
        }
      ],
      "name": "OwnableInvalidOwner",
      "type": "error"
    },
    {
      "inputs": [
        {
          "internalType": "address",
          "name": "account",
          "type": "address"
        }
      ],
      "name": "OwnableUnauthorizedAccount",
      "type": "error"
    },
    {
      "inputs": [],
      "name": "ReentrancyGuardReentrantCall",
      "type": "error"
    },
    {
      "inputs": [],
      "name": "WeekAlreadySettled",
      "type": "error"
    },
    {
      "anonymous": false,
      "inputs": [
        {
          "indexed": true,
          "internalType": "uint256",
          "name": "week",
          "type": "uint256"
        },
        {
          "indexed": true,
          "internalType": "uint256",
          "name": "memeIndex",
          "type": "uint256"
        },
        {
          "indexed": true,
          "internalType": "address",
          "name": "creator",
          "type": "address"
        },
        {
          "indexed": false,
          "internalType": "string",
          "name": "ipfsHash",
          "type": "string"
        },
        {
          "indexed": false,
          "internalType": "string",
          "name": "caption",
          "type": "string"
        }
      ],
      "name": "MemeSubmitted",
      "type": "event"
    },
    {
      "anonymous": false,
      "inputs": [
        {
          "indexed": true,
          "internalType": "uint256",
          "name": "week",
          "type": "uint256"
        },
        {
          "indexed": true,
          "internalType": "uint256",
          "name": "memeIndex",
          "type": "uint256"
        },
        {
          "indexed": true,
          "internalType": "address",
          "name": "voter",
          "type": "address"
        },
        {
          "indexed": false,
          "internalType": "uint256",
          "name": "weight",
          "type": "uint256"
        }
      ],
      "name": "MemeVoted",
      "type": "event"
    },
    {
      "anonymous": false,
      "inputs": [
        {
          "indexed": true,
          "internalType": "uint256",
          "name": "week",
          "type": "uint256"
        },
        {
          "indexed": true,
          "internalType": "uint256",
          "name": "memeIndex",
          "type": "uint256"
        },
        {
          "indexed": true,
          "internalType": "address",
          "name": "winner",
          "type": "address"
        },
        {
          "indexed": false,
          "internalType": "uint256",
          "name": "prize",
          "type": "uint256"
        }
      ],
      "name": "MemeWinner",
      "type": "event"
    },
    {
      "anonymous": false,
      "inputs": [
        {
          "indexed": true,
          "internalType": "address",
          "name": "previousOwner",
          "type": "address"
        },
        {
          "indexed": true,
          "internalType": "address",
          "name": "newOwner",
          "type": "address"
        }
      ],
      "name": "OwnershipTransferred",
      "type": "event"
    },
    {
      "inputs": [],
      "name": "agentMeme",
      "outputs": [
        {
          "internalType": "contract IERC20",
          "name": "",
          "type": "address"
        }
      ],
      "stateMutability": "view",
      "type": "function"
    },
    {
      "inputs": [],
      "name": "currentWeek",
      "outputs": [
        {
          "internalType": "uint256",
          "name": "",
          "type": "uint256"
        }
      ],
      "stateMutability": "view",
      "type": "function"
    },
    {
      "inputs": [],
      "name": "getCurrentWeekMemeCount",
      "outputs": [
        {
          "internalType": "uint256",
          "name": "",
          "type": "uint256"
        }
      ],
      "stateMutability": "view",
      "type": "function"
    },
    {
      "inputs": [
        {
          "internalType": "uint256",
          "name": "topN",
          "type": "uint256"
        }
      ],
      "name": "getLeaderboard",
      "outputs": [
        {
          "components": [
            {
              "internalType": "address",
              "name": "creator",
              "type": "address"
            },
            {
              "internalType": "string",
              "name": "ipfsHash",
              "type": "string"
            },
            {
              "internalType": "string",
              "name": "caption",
              "type": "string"
            },
            {
              "internalType": "uint256",
              "name": "votes",
              "type": "uint256"
            },
            {
              "internalType": "uint256",
              "name": "weekNumber",
              "type": "uint256"
            }
          ],
          "internalType": "struct MemeWar.MemeEntry[]",
          "name": "",
          "type": "tuple[]"
        }
      ],
      "stateMutability": "view",
      "type": "function"
    },
    {
      "inputs": [
        {
          "internalType": "uint256",
          "name": "week",
          "type": "uint256"
        }
      ],
      "name": "getWeekMemes",
      "outputs": [
        {
          "components": [
            {
              "internalType": "address",
              "name": "creator",
              "type": "address"
            },
            {
              "internalType": "string",
              "name": "ipfsHash",
              "type": "string"
            },
            {
              "internalType": "string",
              "name": "caption",
              "type": "string"
            },
            {
              "internalType": "uint256",
              "name": "votes",
              "type": "uint256"
            },
            {
              "internalType": "uint256",
              "name": "weekNumber",
              "type": "uint256"
            }
          ],
          "internalType": "struct MemeWar.MemeEntry[]",
          "name": "",
          "type": "tuple[]"
        }
      ],
      "stateMutability": "view",
      "type": "function"
    },
    {
      "inputs": [
        {
          "internalType": "uint256",
          "name": "week",
          "type": "uint256"
        },
        {
          "internalType": "uint256",
          "name": "memeIndex",
          "type": "uint256"
        },
        {
          "internalType": "address",
          "name": "voter",
          "type": "address"
        }
      ],
      "name": "hasUserVoted",
      "outputs": [
        {
          "internalType": "bool",
          "name": "",
          "type": "bool"
        }
      ],
      "stateMutability": "view",
      "type": "function"
    },
    {
      "inputs": [
        {
          "internalType": "uint256",
          "name": "",
          "type": "uint256"
        },
        {
          "internalType": "uint256",
          "name": "",
          "type": "uint256"
        },
        {
          "internalType": "address",
          "name": "",
          "type": "address"
        }
      ],
      "name": "hasVoted",
      "outputs": [
        {
          "internalType": "bool",
          "name": "",
          "type": "bool"
        }
      ],
      "stateMutability": "view",
      "type": "function"
    },
    {
      "inputs": [],
      "name": "owner",
      "outputs": [
        {
          "internalType": "address",
          "name": "",
          "type": "address"
        }
      ],
      "stateMutability": "view",
      "type": "function"
    },
    {
      "inputs": [],
      "name": "renounceOwnership",
      "outputs": [],
      "stateMutability": "nonpayable",
      "type": "function"
    },
    {
      "inputs": [
        {
          "internalType": "address",
          "name": "_vault",
          "type": "address"
        }
      ],
      "name": "setVault",
      "outputs": [],
      "stateMutability": "nonpayable",
      "type": "function"
    },
    {
      "inputs": [
        {
          "internalType": "uint256",
          "name": "prizeUsdc",
          "type": "uint256"
        }
      ],
      "name": "settleWeek",
      "outputs": [],
      "stateMutability": "nonpayable",
      "type": "function"
    },
    {
      "inputs": [
        {
          "internalType": "string",
          "name": "ipfsHash",
          "type": "string"
        },
        {
          "internalType": "string",
          "name": "caption",
          "type": "string"
        }
      ],
      "name": "submitMeme",
      "outputs": [],
      "stateMutability": "nonpayable",
      "type": "function"
    },
    {
      "inputs": [
        {
          "internalType": "address",
          "name": "newOwner",
          "type": "address"
        }
      ],
      "name": "transferOwnership",
      "outputs": [],
      "stateMutability": "nonpayable",
      "type": "function"
    },
    {
      "inputs": [],
      "name": "usdc",
      "outputs": [
        {
          "internalType": "contract IERC20",
          "name": "",
          "type": "address"
        }
      ],
      "stateMutability": "view",
      "type": "function"
    },
    {
      "inputs": [],
      "name": "vault",
      "outputs": [
        {
          "internalType": "address",
          "name": "",
          "type": "address"
        }
      ],
      "stateMutability": "view",
      "type": "function"
    },
    {
      "inputs": [
        {
          "internalType": "uint256",
          "name": "memeIndex",
          "type": "uint256"
        }
      ],
      "name": "vote",
      "outputs": [],
      "stateMutability": "nonpayable",
      "type": "function"
    },
    {
      "inputs": [
        {
          "internalType": "uint256",
          "name": "",
          "type": "uint256"
        },
        {
          "internalType": "uint256",
          "name": "",
          "type": "uint256"
        }
      ],
      "name": "weekEntries",
      "outputs": [
        {
          "internalType": "address",
          "name": "creator",
          "type": "address"
        },
        {
          "internalType": "string",
          "name": "ipfsHash",
          "type": "string"
        },
        {
          "internalType": "string",
          "name": "caption",
          "type": "string"
        },
        {
          "internalType": "uint256",
          "name": "votes",
          "type": "uint256"
        },
        {
          "internalType": "uint256",
          "name": "weekNumber",
          "type": "uint256"
        }
      ],
      "stateMutability": "view",
      "type": "function"
    },
    {
      "inputs": [
        {
          "internalType": "uint256",
          "name": "",
          "type": "uint256"
        }
      ],
      "name": "weekSettled",
      "outputs": [
        {
          "internalType": "bool",
          "name": "",
          "type": "bool"
        }
      ],
      "stateMutability": "view",
      "type": "function"
    },
    {
      "inputs": [
        {
          "internalType": "uint256",
          "name": "",
          "type": "uint256"
        }
      ],
      "name": "weekWinner",
      "outputs": [
        {
          "internalType": "address",
          "name": "",
          "type": "address"
        }
      ],
      "stateMutability": "view",
      "type": "function"
    }
  ],
  "bytecode": "0x60c060405234801561000f575f5ffd5b50604051611a8f380380611a8f83398101604081905261002e916101b4565b338061005457604051631e4fbdf760e01b81525f60048201526024015b60405180910390fd5b61005d8161014a565b5060017f9b779b17422d0df92223018b32b4d1fa46e071723d6817e2486d003becc55f00556001600160a01b0382166100d85760405162461bcd60e51b815260206004820152601560248201527f496e76616c696420746f6b656e20616464726573730000000000000000000000604482015260640161004b565b6001600160a01b03811661012e5760405162461bcd60e51b815260206004820152601460248201527f496e76616c696420555344432061646472657373000000000000000000000000604482015260640161004b565b6001600160a01b039182166080521660a05260016002556101e5565b5f80546001600160a01b038381166001600160a01b0319831681178455604051919092169283917f8be0079c531659141344cd1fd0a4f28419497f9722a3daafe3b4186f6b6457e09190a35050565b80516001600160a01b03811681146101af575f5ffd5b919050565b5f5f604083850312156101c5575f5ffd5b6101ce83610199565b91506101dc60208401610199565b90509250929050565b60805160a05161187461021b5f395f81816101bd015261087101525f818161025d015281816104570152610bfa01526118745ff3fe608060405234801561000f575f5ffd5b506004361061011c575f3560e01c80636817031b116100a95780638da5cb5b1161006e5780638da5cb5b146102f6578063a34b46fe14610306578063ab674ce014610319578063f2fde38b14610341578063fbfa77cf14610354575f5ffd5b80636817031b14610292578063715018a6146102a557806375c12bdd146102ad57806376349d89146102cd578063843d6454146102e3575f5ffd5b80633e413bee116100ef5780633e413bee146101b857806348d3472e146101f757806351f5ec1e146102195780635e336b3a1461025857806360077f791461027f575f5ffd5b80630121b93f1461012057806306575c89146101355780630d39a1d3146101515780632f95cc3d14610194575b5f5ffd5b61013361012e366004611363565b610367565b005b61013e60025481565b6040519081526020015b60405180910390f35b61018461015f366004611395565b600460209081525f938452604080852082529284528284209052825290205460ff1681565b6040519015158152602001610148565b6101a76101a23660046113c7565b61058c565b604051610148959493929190611415565b6101df7f000000000000000000000000000000000000000000000000000000000000000081565b6040516001600160a01b039091168152602001610148565b610184610205366004611363565b60056020525f908152604090205460ff1681565b610184610227366004611395565b5f9283526004602090815260408085209385529281528284206001600160a01b039290921684525290205460ff1690565b6101df7f000000000000000000000000000000000000000000000000000000000000000081565b61013361028d366004611363565b6106ee565b6101336102a036600461145f565b61099a565b610133610a12565b6102c06102bb366004611363565b610a25565b604051610148919061147f565b6002545f9081526003602052604090205461013e565b6101336102f1366004611577565b610bdd565b5f546001600160a01b03166101df565b6102c0610314366004611363565b610e55565b6101df610327366004611363565b60066020525f90815260409020546001600160a01b031681565b61013361034f36600461145f565b611264565b6001546101df906001600160a01b031681565b61036f61129e565b6002545f90815260036020526040902054811061039f57604051637824894760e11b815260040160405180910390fd5b6002545f9081526003602052604081208054839081106103c1576103c16115e3565b5f9182526020808320600254845260048252604080852087865283528085203386529092529220546005909102909101915060ff161561041457604051637c9a1cf960e01b815260040160405180910390fd5b8054336001600160a01b039091160361044057604051634b972ca160e11b815260040160405180910390fd5b6040516370a0823160e01b81523360048201525f907f00000000000000000000000000000000000000000000000000000000000000006001600160a01b0316906370a0823190602401602060405180830381865afa1580156104a4573d5f5f3e3d5ffd5b505050506040513d601f19601f820116820180604052508101906104c891906115f7565b9050805f036104ea57604051632ea7a49b60e21b815260040160405180910390fd5b80826003015f8282546104fd9190611622565b9091555050600280545f908152600460209081526040808320878452825280832033808552925291829020805460ff19166001179055915490518591907fd7ce56196a1075335d8746171d63e8a5c0088ef273e6cb725935acda74644b24906105699086815260200190565b60405180910390a4505061058960015f51602061181f5f395f51905f5255565b50565b6003602052815f5260405f2081815481106105a5575f80fd5b5f918252602090912060059091020180546001820180546001600160a01b0390921694509192506105d59061163b565b80601f01602080910402602001604051908101604052809291908181526020018280546106019061163b565b801561064c5780601f106106235761010080835404028352916020019161064c565b820191905f5260205f20905b81548152906001019060200180831161062f57829003601f168201915b5050505050908060020180546106619061163b565b80601f016020809104026020016040519081016040528092919081815260200182805461068d9061163b565b80156106d85780601f106106af576101008083540402835291602001916106d8565b820191905f5260205f20905b8154815290600101906020018083116106bb57829003601f168201915b5050505050908060030154908060040154905085565b6001546001600160a01b0316331461071957604051638d1af8bd60e01b815260040160405180910390fd5b61072161129e565b6002545f9081526005602052604090205460ff16156107535760405163708c25ad60e11b815260040160405180910390fd5b6002545f9081526003602052604081209080805b83548110156107c95781848281548110610783576107836115e3565b905f5260205f2090600502016003015411156107c1578381815481106107ab576107ab6115e3565b905f5260205f2090600502016003015491508092505b600101610767565b506002545f908152600560205260409020805460ff191660011790558254158015906107f457505f84115b1561096d575f83838154811061080c5761080c6115e3565b5f9182526020808320600592909202909101546002548352600690915260409182902080546001600160a01b0319166001600160a01b0392831690811790915591516323b872dd60e01b815233600482015260248101839052604481018890529192507f000000000000000000000000000000000000000000000000000000000000000016906323b872dd906064016020604051808303815f875af11580156108b7573d5f5f3e3d5ffd5b505050506040513d601f19601f820116820180604052508101906108db9190611673565b6109245760405162461bcd60e51b8152602060048201526015602482015274141c9a5e99481d1c985b9cd9995c8819985a5b1959605a1b60448201526064015b60405180910390fd5b806001600160a01b0316836002547f05672152107866d775347d337e925293c8b4db94a458f8e987ab66f834fb41d48860405161096391815260200190565b60405180910390a4505b60028054905f61097c83611692565b919050555050505061058960015f51602061181f5f395f51905f5255565b6109a26112b9565b6001600160a01b0381166109f05760405162461bcd60e51b8152602060048201526015602482015274496e76616c6964207661756c74206164647265737360581b604482015260640161091b565b600180546001600160a01b0319166001600160a01b0392909216919091179055565b610a1a6112b9565b610a235f6112e5565b565b606060035f8381526020019081526020015f20805480602002602001604051908101604052809291908181526020015f905b82821015610bd2575f8481526020908190206040805160a081019091526005850290910180546001600160a01b031682526001810180549293919291840191610a9f9061163b565b80601f0160208091040260200160405190810160405280929190818152602001828054610acb9061163b565b8015610b165780601f10610aed57610100808354040283529160200191610b16565b820191905f5260205f20905b815481529060010190602001808311610af957829003601f168201915b50505050508152602001600282018054610b2f9061163b565b80601f0160208091040260200160405190810160405280929190818152602001828054610b5b9061163b565b8015610ba65780601f10610b7d57610100808354040283529160200191610ba6565b820191905f5260205f20905b815481529060010190602001808311610b8957829003601f168201915b505050505081526020016003820154815260200160048201548152505081526020019060010190610a57565b505050509050919050565b610be561129e565b6040516370a0823160e01b81523360048201527f00000000000000000000000000000000000000000000000000000000000000006001600160a01b0316906370a0823190602401602060405180830381865afa158015610c47573d5f5f3e3d5ffd5b505050506040513d601f19601f82011682018060405250810190610c6b91906115f7565b5f03610c8a57604051632ea7a49b60e21b815260040160405180910390fd5b5f839003610cab576040516336225e2360e01b815260040160405180910390fd5b608c811115610ccd576040516311f6dd1560e21b815260040160405180910390fd5b6002545f908152600360209081526040918290208054835160a0810185523381528451601f89018590048502810185019095528785529093919290918282019189908990819084018382808284375f92019190915250505090825250604080516020601f8801819004810282018101909252868152918101919087908790819084018382808284375f920182905250938552505050602080830182905260025460409093019290925283546001808201865594825290829020835160059092020180546001600160a01b0319166001600160a01b03909216919091178155908201519192909190820190610dc1908261170a565b5060408201516002820190610dd6908261170a565b5060608201518160030155608082015181600401555050336001600160a01b0316816002547f1e2b538444db72cd62d117c043cdbe26008c6d83aa3b9f3062b0466b07e8625988888888604051610e3094939291906117ed565b60405180910390a450610e4f60015f51602061181f5f395f51905f5255565b50505050565b6002545f90815260036020526040902080546060919080841115610e77578093505b5f8167ffffffffffffffff811115610e9157610e916116aa565b604051908082528060200260200182016040528015610efa57816020015b610ee76040518060a001604052805f6001600160a01b0316815260200160608152602001606081526020015f81526020015f81525090565b815260200190600190039081610eaf5790505b5090505f5b828110156110a157838181548110610f1957610f196115e3565b5f9182526020918290206040805160a0810190915260059092020180546001600160a01b031682526001810180549293919291840191610f589061163b565b80601f0160208091040260200160405190810160405280929190818152602001828054610f849061163b565b8015610fcf5780601f10610fa657610100808354040283529160200191610fcf565b820191905f5260205f20905b815481529060010190602001808311610fb257829003601f168201915b50505050508152602001600282018054610fe89061163b565b80601f01602080910402602001604051908101604052809291908181526020018280546110149061163b565b801561105f5780601f106110365761010080835404028352916020019161105f565b820191905f5260205f20905b81548152906001019060200180831161104257829003601f168201915b505050505081526020016003820154815260200160048201548152505082828151811061108e5761108e6115e3565b6020908102919091010152600101610eff565b505f5b8281101561118a575f6110b8826001611622565b90505b83811015611181578282815181106110d5576110d56115e3565b6020026020010151606001518382815181106110f3576110f36115e3565b6020026020010151606001511115611179575f838381518110611118576111186115e3565b60200260200101519050838281518110611134576111346115e3565b602002602001015184848151811061114e5761114e6115e3565b60200260200101819052508084838151811061116c5761116c6115e3565b6020026020010181905250505b6001016110bb565b506001016110a4565b505f8567ffffffffffffffff8111156111a5576111a56116aa565b60405190808252806020026020018201604052801561120e57816020015b6111fb6040518060a001604052805f6001600160a01b0316815260200160608152602001606081526020015f81526020015f81525090565b8152602001906001900390816111c35790505b5090505f5b8681101561125a5782818151811061122d5761122d6115e3565b6020026020010151828281518110611247576112476115e3565b6020908102919091010152600101611213565b5095945050505050565b61126c6112b9565b6001600160a01b03811661129557604051631e4fbdf760e01b81525f600482015260240161091b565b610589816112e5565b6112a6611334565b60025f51602061181f5f395f51905f5255565b5f546001600160a01b03163314610a235760405163118cdaa760e01b815233600482015260240161091b565b5f80546001600160a01b038381166001600160a01b0319831681178455604051919092169283917f8be0079c531659141344cd1fd0a4f28419497f9722a3daafe3b4186f6b6457e09190a35050565b5f51602061181f5f395f51905f5254600203610a2357604051633ee5aeb560e01b815260040160405180910390fd5b5f60208284031215611373575f5ffd5b5035919050565b80356001600160a01b0381168114611390575f5ffd5b919050565b5f5f5f606084860312156113a7575f5ffd5b83359250602084013591506113be6040850161137a565b90509250925092565b5f5f604083850312156113d8575f5ffd5b50508035926020909101359150565b5f81518084528060208401602086015e5f602082860101526020601f19601f83011685010191505092915050565b6001600160a01b038616815260a0602082018190525f90611438908301876113e7565b828103604084015261144a81876113e7565b60608401959095525050608001529392505050565b5f6020828403121561146f575f5ffd5b6114788261137a565b9392505050565b5f602082016020835280845180835260408501915060408160051b8601019250602086015f5b8281101561152657868503603f19018452815180516001600160a01b0316865260208082015160a0918801829052906114e0908801826113e7565b9050604082015187820360408901526114f982826113e7565b606084810151908a01526080938401519390980192909252505060209384019391909101906001016114a5565b50929695505050505050565b5f5f83601f840112611542575f5ffd5b50813567ffffffffffffffff811115611559575f5ffd5b602083019150836020828501011115611570575f5ffd5b9250929050565b5f5f5f5f6040858703121561158a575f5ffd5b843567ffffffffffffffff8111156115a0575f5ffd5b6115ac87828801611532565b909550935050602085013567ffffffffffffffff8111156115cb575f5ffd5b6115d787828801611532565b95989497509550505050565b634e487b7160e01b5f52603260045260245ffd5b5f60208284031215611607575f5ffd5b5051919050565b634e487b7160e01b5f52601160045260245ffd5b808201808211156116355761163561160e565b92915050565b600181811c9082168061164f57607f821691505b60208210810361166d57634e487b7160e01b5f52602260045260245ffd5b50919050565b5f60208284031215611683575f5ffd5b81518015158114611478575f5ffd5b5f600182016116a3576116a361160e565b5060010190565b634e487b7160e01b5f52604160045260245ffd5b601f82111561170557805f5260205f20601f840160051c810160208510156116e35750805b601f840160051c820191505b81811015611702575f81556001016116ef565b50505b505050565b815167ffffffffffffffff811115611724576117246116aa565b61173881611732845461163b565b846116be565b6020601f82116001811461176a575f83156117535750848201515b5f19600385901b1c1916600184901b178455611702565b5f84815260208120601f198516915b828110156117995787850151825560209485019460019092019101611779565b50848210156117b657868401515f19600387901b60f8161c191681555b50505050600190811b01905550565b81835281816020850137505f828201602090810191909152601f909101601f19169091010190565b604081525f6118006040830186886117c5565b82810360208401526118138185876117c5565b97965050505050505056fe9b779b17422d0df92223018b32b4d1fa46e071723d6817e2486d003becc55f00a2646970667358221220d84a857e7d2d2507cc8f9a4595fe00f6a1bf3b8ebd1403179d3842a8f1a1a05c64736f6c634300081c0033",
  "linkReferences": {},
  "deployedLinkReferences": {},
  "immutableReferences": {
    "506": [
      {
        "length": 32,
        "start": 605
      },
      {
        "length": 32,
        "start": 1111
      },
      {
        "length": 32,
        "start": 3066
      }
    ],
    "510": [
      {
        "length": 32,
        "start": 445
      },
      {
        "length": 32,
        "start": 2161
      }
    ]
  },
  "inputSourceName": "project/contracts/MemeWar.sol",
  "buildInfoId": "solc-0_8_28-8840cd77b0dab1bd1514826e0b84ef3d4c88df3e"
}