{
  "_format": "hh3-artifact-1",
  "contractName": "CombinedPurchaseWrapper",
  "sourceName": "contracts/CombinedPurchaseWrapper.sol",
  "abi": [
    {
      "inputs": [
        {
          "internalType": "address",
          "name": "_tokenManager",
          "type": "address"
        },
        {
          "internalType": "address",
          "name": "_vault",
          "type": "address"
        },
        {
          "internalType": "address",
          "name": "_agentMemeToken",
          "type": "address"
        },
        {
          "internalType": "address",
          "name": "_usdc",
          "type": "address"
        }
      ],
      "stateMutability": "nonpayable",
      "type": "constructor"
    },
    {
      "inputs": [],
      "name": "InsufficientAmount",
      "type": "error"
    },
    {
      "inputs": [],
      "name": "InvalidSplit",
      "type": "error"
    },
    {
      "inputs": [
        {
          "internalType": "address",
          "name": "owner",
          "type": "address"
        }
      ],
      "name": "OwnableInvalidOwner",
      "type": "error"
    },
    {
      "inputs": [
        {
          "internalType": "address",
          "name": "account",
          "type": "address"
        }
      ],
      "name": "OwnableUnauthorizedAccount",
      "type": "error"
    },
    {
      "inputs": [],
      "name": "ReentrancyGuardReentrantCall",
      "type": "error"
    },
    {
      "anonymous": false,
      "inputs": [
        {
          "indexed": true,
          "internalType": "address",
          "name": "user",
          "type": "address"
        },
        {
          "indexed": false,
          "internalType": "uint256",
          "name": "totalUsdc",
          "type": "uint256"
        },
        {
          "indexed": false,
          "internalType": "uint256",
          "name": "tokenPurchaseAmount",
          "type": "uint256"
        },
        {
          "indexed": false,
          "internalType": "uint256",
          "name": "vaultDepositAmount",
          "type": "uint256"
        },
        {
          "indexed": false,
          "internalType": "uint256",
          "name": "tokensReceived",
          "type": "uint256"
        },
        {
          "indexed": false,
          "internalType": "uint256",
          "name": "vaultSharesReceived",
          "type": "uint256"
        },
        {
          "indexed": false,
          "internalType": "string",
          "name": "message",
          "type": "string"
        }
      ],
      "name": "CombinedPurchase",
      "type": "event"
    },
    {
      "anonymous": false,
      "inputs": [
        {
          "indexed": true,
          "internalType": "address",
          "name": "previousOwner",
          "type": "address"
        },
        {
          "indexed": true,
          "internalType": "address",
          "name": "newOwner",
          "type": "address"
        }
      ],
      "name": "OwnershipTransferred",
      "type": "event"
    },
    {
      "inputs": [],
      "name": "agentMemeToken",
      "outputs": [
        {
          "internalType": "address",
          "name": "",
          "type": "address"
        }
      ],
      "stateMutability": "view",
      "type": "function"
    },
    {
      "inputs": [],
      "name": "defaultTokenPercentBps",
      "outputs": [
        {
          "internalType": "uint256",
          "name": "",
          "type": "uint256"
        }
      ],
      "stateMutability": "view",
      "type": "function"
    },
    {
      "inputs": [
        {
          "internalType": "uint256",
          "name": "totalUsdc",
          "type": "uint256"
        },
        {
          "internalType": "uint256",
          "name": "tokenPercentBps",
          "type": "uint256"
        },
        {
          "internalType": "uint256",
          "name": "minTokens",
          "type": "uint256"
        },
        {
          "internalType": "string",
          "name": "message",
          "type": "string"
        }
      ],
      "name": "investWithCustomSplit",
      "outputs": [],
      "stateMutability": "nonpayable",
      "type": "function"
    },
    {
      "inputs": [
        {
          "internalType": "uint256",
          "name": "totalUsdc",
          "type": "uint256"
        },
        {
          "internalType": "uint256",
          "name": "minTokens",
          "type": "uint256"
        },
        {
          "internalType": "string",
          "name": "message",
          "type": "string"
        }
      ],
      "name": "investWithDefaultSplit",
      "outputs": [],
      "stateMutability": "nonpayable",
      "type": "function"
    },
    {
      "inputs": [],
      "name": "owner",
      "outputs": [
        {
          "internalType": "address",
          "name": "",
          "type": "address"
        }
      ],
      "stateMutability": "view",
      "type": "function"
    },
    {
      "inputs": [
        {
          "internalType": "address",
          "name": "token",
          "type": "address"
        },
        {
          "internalType": "uint256",
          "name": "amount",
          "type": "uint256"
        }
      ],
      "name": "recoverToken",
      "outputs": [],
      "stateMutability": "nonpayable",
      "type": "function"
    },
    {
      "inputs": [],
      "name": "renounceOwnership",
      "outputs": [],
      "stateMutability": "nonpayable",
      "type": "function"
    },
    {
      "inputs": [
        {
          "internalType": "uint256",
          "name": "tokenPercentBps",
          "type": "uint256"
        }
      ],
      "name": "setDefaultSplit",
      "outputs": [],
      "stateMutability": "nonpayable",
      "type": "function"
    },
    {
      "inputs": [],
      "name": "tokenManager",
      "outputs": [
        {
          "internalType": "contract ITokenManager2",
          "name": "",
          "type": "address"
        }
      ],
      "stateMutability": "view",
      "type": "function"
    },
    {
      "inputs": [
        {
          "internalType": "address",
          "name": "newOwner",
          "type": "address"
        }
      ],
      "name": "transferOwnership",
      "outputs": [],
      "stateMutability": "nonpayable",
      "type": "function"
    },
    {
      "inputs": [],
      "name": "usdc",
      "outputs": [
        {
          "internalType": "contract IERC20",
          "name": "",
          "type": "address"
        }
      ],
      "stateMutability": "view",
      "type": "function"
    },
    {
      "inputs": [],
      "name": "vault",
      "outputs": [
        {
          "internalType": "contract IAgentVault",
          "name": "",
          "type": "address"
        }
      ],
      "stateMutability": "view",
      "type": "function"
    }
  ],
  "bytecode": "0x6101006040526107d0600155348015610016575f5ffd5b506040516110623803806110628339810160408190526100359161023c565b338061005b57604051631e4fbdf760e01b81525f60048201526024015b60405180910390fd5b610064816101d2565b5060017f9b779b17422d0df92223018b32b4d1fa46e071723d6817e2486d003becc55f00556001600160a01b0384166100df5760405162461bcd60e51b815260206004820152601460248201527f496e76616c696420546f6b656e4d616e616765720000000000000000000000006044820152606401610052565b6001600160a01b0383166101255760405162461bcd60e51b815260206004820152600d60248201526c125b9d985b1a59081d985d5b1d609a1b6044820152606401610052565b6001600160a01b03821661016b5760405162461bcd60e51b815260206004820152600d60248201526c24b73b30b634b2103a37b5b2b760991b6044820152606401610052565b6001600160a01b0381166101b05760405162461bcd60e51b815260206004820152600c60248201526b496e76616c6964205553444360a01b6044820152606401610052565b6001600160a01b0393841660805291831660a052821660c0521660e05261028d565b5f80546001600160a01b038381166001600160a01b0319831681178455604051919092169283917f8be0079c531659141344cd1fd0a4f28419497f9722a3daafe3b4186f6b6457e09190a35050565b80516001600160a01b0381168114610237575f5ffd5b919050565b5f5f5f5f6080858703121561024f575f5ffd5b61025885610221565b935061026660208601610221565b925061027460408601610221565b915061028260608601610221565b905092959194509250565b60805160a05160c05160e051610d5761030b5f395f818160fe015281816102a301528181610500015281816106b301526108ad01525f81816101a2015281816105fc0152818161073501526107e001525f81816101dc0152818161087e015261093401525f818160ba0152818161068401526107710152610d575ff3fe608060405234801561000f575f5ffd5b50600436106100b1575f3560e01c8063b29a81401161006e578063b29a814014610160578063dd02d2a614610173578063e731a1891461018a578063f0ea15e41461019d578063f2fde38b146101c4578063fbfa77cf146101d7575f5ffd5b80632a709b14146100b55780633e413bee146100f95780636c4d5c1c14610120578063715018a6146101355780638da5cb5b1461013d5780639260243a1461014d575b5f5ffd5b6100dc7f000000000000000000000000000000000000000000000000000000000000000081565b6040516001600160a01b0390911681526020015b60405180910390f35b6100dc7f000000000000000000000000000000000000000000000000000000000000000081565b61013361012e366004610af2565b6101fe565b005b610133610253565b5f546001600160a01b03166100dc565b61013361015b366004610b4e565b610266565b61013361016e366004610bb8565b610299565b61017c60015481565b6040519081526020016100f0565b610133610198366004610be0565b6103ed565b6100dc7f000000000000000000000000000000000000000000000000000000000000000081565b6101336101d2366004610bf7565b61041d565b6100dc7f000000000000000000000000000000000000000000000000000000000000000081565b61020661045a565b6127108411156102295760405163bcd55b0f60e01b815260040160405180910390fd5b6102368585858585610475565b61024c60015f516020610d025f395f51905f5255565b5050505050565b61025b610a03565b6102645f610a2f565b565b61026e61045a565b61027d84600154858585610475565b61029360015f516020610d025f395f51905f5255565b50505050565b6102a1610a03565b7f00000000000000000000000000000000000000000000000000000000000000006001600160a01b0316826001600160a01b03160361031d5760405162461bcd60e51b815260206004820152601360248201527243616e6e6f74207265636f766572205553444360681b60448201526064015b60405180910390fd5b816001600160a01b031663a9059cbb61033d5f546001600160a01b031690565b6040516001600160e01b031960e084901b1681526001600160a01b039091166004820152602481018490526044016020604051808303815f875af1158015610387573d5f5f3e3d5ffd5b505050506040513d601f19601f820116820180604052508101906103ab9190610c17565b6103e95760405162461bcd60e51b815260206004820152600f60248201526e149958dbdd995c9e4819985a5b1959608a1b6044820152606401610314565b5050565b6103f5610a03565b6127108111156104185760405163bcd55b0f60e01b815260040160405180910390fd5b600155565b610425610a03565b6001600160a01b03811661044e57604051631e4fbdf760e01b81525f6004820152602401610314565b61045781610a2f565b50565b610462610a7e565b60025f516020610d025f395f51905f5255565b620f424085101561049957604051632ca2f52b60e11b815260040160405180910390fd5b6101188111156104de5760405162461bcd60e51b815260206004820152601060248201526f4d65737361676520746f6f206c6f6e6760801b6044820152606401610314565b6040516323b872dd60e01b8152336004820152306024820152604481018690527f00000000000000000000000000000000000000000000000000000000000000006001600160a01b0316906323b872dd906064016020604051808303815f875af115801561054e573d5f5f3e3d5ffd5b505050506040513d601f19601f820116820180604052508101906105729190610c17565b6105b55760405162461bcd60e51b81526020600482015260146024820152731554d110c81d1c985b9cd9995c8819985a5b195960621b6044820152606401610314565b5f6127106105c38688610c4a565b6105cd9190610c67565b90505f6105da8288610c86565b6040516370a0823160e01b81523360048201529091505f906001600160a01b037f000000000000000000000000000000000000000000000000000000000000000016906370a0823190602401602060405180830381865afa158015610641573d5f5f3e3d5ffd5b505050506040513d601f19601f820116820180604052508101906106659190610c99565b905082156107c95760405163095ea7b360e01b81526001600160a01b037f000000000000000000000000000000000000000000000000000000000000000081166004830152602482018590527f0000000000000000000000000000000000000000000000000000000000000000169063095ea7b3906044016020604051808303815f875af11580156106f9573d5f5f3e3d5ffd5b505050506040513d601f19601f8201168201806040525081019061071d9190610c17565b50604051637f79f6df60e01b81526001600160a01b037f00000000000000000000000000000000000000000000000000000000000000008116600483015233602483015260448201859052606482018890527f00000000000000000000000000000000000000000000000000000000000000001690637f79f6df906084015f604051808303815f87803b1580156107b2575f5ffd5b505af11580156107c4573d5f5f3e3d5ffd5b505050505b6040516370a0823160e01b81523360048201525f907f00000000000000000000000000000000000000000000000000000000000000006001600160a01b0316906370a0823190602401602060405180830381865afa15801561082d573d5f5f3e3d5ffd5b505050506040513d601f19601f820116820180604052508101906108519190610c99565b90505f61085e8383610c86565b90505f84156109a95760405163095ea7b360e01b81526001600160a01b037f000000000000000000000000000000000000000000000000000000000000000081166004830152602482018790527f0000000000000000000000000000000000000000000000000000000000000000169063095ea7b3906044016020604051808303815f875af11580156108f3573d5f5f3e3d5ffd5b505050506040513d601f19601f820116820180604052508101906109179190610c17565b50604051636e553f6560e01b8152600481018690523360248201527f00000000000000000000000000000000000000000000000000000000000000006001600160a01b031690636e553f65906044016020604051808303815f875af1158015610982573d5f5f3e3d5ffd5b505050506040513d601f19601f820116820180604052508101906109a69190610c99565b90505b336001600160a01b03167fe2bbf433f3581133d9cc4d59115c1607fce19632788a0d34f4fe9846bad2865a8c888886868e8e6040516109ee9796959493929190610cb0565b60405180910390a25050505050505050505050565b5f546001600160a01b031633146102645760405163118cdaa760e01b8152336004820152602401610314565b5f80546001600160a01b038381166001600160a01b0319831681178455604051919092169283917f8be0079c531659141344cd1fd0a4f28419497f9722a3daafe3b4186f6b6457e09190a35050565b5f516020610d025f395f51905f525460020361026457604051633ee5aeb560e01b815260040160405180910390fd5b5f5f83601f840112610abd575f5ffd5b50813567ffffffffffffffff811115610ad4575f5ffd5b602083019150836020828501011115610aeb575f5ffd5b9250929050565b5f5f5f5f5f60808688031215610b06575f5ffd5b853594506020860135935060408601359250606086013567ffffffffffffffff811115610b31575f5ffd5b610b3d88828901610aad565b969995985093965092949392505050565b5f5f5f5f60608587031215610b61575f5ffd5b8435935060208501359250604085013567ffffffffffffffff811115610b85575f5ffd5b610b9187828801610aad565b95989497509550505050565b80356001600160a01b0381168114610bb3575f5ffd5b919050565b5f5f60408385031215610bc9575f5ffd5b610bd283610b9d565b946020939093013593505050565b5f60208284031215610bf0575f5ffd5b5035919050565b5f60208284031215610c07575f5ffd5b610c1082610b9d565b9392505050565b5f60208284031215610c27575f5ffd5b81518015158114610c10575f5ffd5b634e487b7160e01b5f52601160045260245ffd5b8082028115828204841417610c6157610c61610c36565b92915050565b5f82610c8157634e487b7160e01b5f52601260045260245ffd5b500490565b81810381811115610c6157610c61610c36565b5f60208284031215610ca9575f5ffd5b5051919050565b87815286602082015285604082015284606082015283608082015260c060a08201528160c0820152818360e08301375f81830160e090810191909152601f909201601f19160101969550505050505056fe9b779b17422d0df92223018b32b4d1fa46e071723d6817e2486d003becc55f00a2646970667358221220f591c2c0913f478c92623186f72bfa13115c0f12c1b84ae03bc8a3d847f7b79b64736f6c634300081c0033",
  "linkReferences": {},
  "deployedLinkReferences": {},
  "immutableReferences": {
    "528": [
      {
        "length": 32,
        "start": 186
      },
      {
        "length": 32,
        "start": 1668
      },
      {
        "length": 32,
        "start": 1905
      }
    ],
    "532": [
      {
        "length": 32,
        "start": 476
      },
      {
        "length": 32,
        "start": 2174
      },
      {
        "length": 32,
        "start": 2356
      }
    ],
    "535": [
      {
        "length": 32,
        "start": 418
      },
      {
        "length": 32,
        "start": 1532
      },
      {
        "length": 32,
        "start": 1845
      },
      {
        "length": 32,
        "start": 2016
      }
    ],
    "539": [
      {
        "length": 32,
        "start": 254
      },
      {
        "length": 32,
        "start": 675
      },
      {
        "length": 32,
        "start": 1280
      },
      {
        "length": 32,
        "start": 1715
      },
      {
        "length": 32,
        "start": 2221
      }
    ]
  },
  "inputSourceName": "project/contracts/CombinedPurchaseWrapper.sol",
  "buildInfoId": "solc-0_8_28-0133b7e89c4895325d04f3f39d404887e47f672e"
}