{
  "_format": "hh3-artifact-1",
  "contractName": "BuyMessageWrapper",
  "sourceName": "contracts/BuyMessageWrapper.sol",
  "abi": [
    {
      "inputs": [
        {
          "internalType": "address",
          "name": "_tokenManager",
          "type": "address"
        },
        {
          "internalType": "address",
          "name": "_token",
          "type": "address"
        },
        {
          "internalType": "address",
          "name": "_usdc",
          "type": "address"
        }
      ],
      "stateMutability": "nonpayable",
      "type": "constructor"
    },
    {
      "inputs": [],
      "name": "MessageTooLong",
      "type": "error"
    },
    {
      "anonymous": false,
      "inputs": [
        {
          "indexed": true,
          "internalType": "address",
          "name": "buyer",
          "type": "address"
        },
        {
          "indexed": false,
          "internalType": "uint256",
          "name": "usdcAmount",
          "type": "uint256"
        },
        {
          "indexed": false,
          "internalType": "string",
          "name": "message",
          "type": "string"
        },
        {
          "indexed": false,
          "internalType": "uint256",
          "name": "timestamp",
          "type": "uint256"
        }
      ],
      "name": "BuyWithMessage",
      "type": "event"
    },
    {
      "inputs": [],
      "name": "agentMemeToken",
      "outputs": [
        {
          "internalType": "address",
          "name": "",
          "type": "address"
        }
      ],
      "stateMutability": "view",
      "type": "function"
    },
    {
      "inputs": [
        {
          "internalType": "uint256",
          "name": "usdcAmount",
          "type": "uint256"
        },
        {
          "internalType": "uint256",
          "name": "minTokenAmount",
          "type": "uint256"
        },
        {
          "internalType": "string",
          "name": "message",
          "type": "string"
        }
      ],
      "name": "buyWithMessage",
      "outputs": [],
      "stateMutability": "nonpayable",
      "type": "function"
    },
    {
      "inputs": [],
      "name": "tokenManager",
      "outputs": [
        {
          "internalType": "contract ITokenManager2",
          "name": "",
          "type": "address"
        }
      ],
      "stateMutability": "view",
      "type": "function"
    },
    {
      "inputs": [],
      "name": "usdc",
      "outputs": [
        {
          "internalType": "contract IERC20",
          "name": "",
          "type": "address"
        }
      ],
      "stateMutability": "view",
      "type": "function"
    }
  ],
  "bytecode": "0x60e060405234801561000f575f5ffd5b5060405161068638038061068683398101604081905261002e9161014c565b6001600160a01b0383166100895760405162461bcd60e51b815260206004820152601460248201527f496e76616c696420546f6b656e4d616e6167657200000000000000000000000060448201526064015b60405180910390fd5b6001600160a01b0382166100cf5760405162461bcd60e51b815260206004820152600d60248201526c24b73b30b634b2103a37b5b2b760991b6044820152606401610080565b6001600160a01b0381166101145760405162461bcd60e51b815260206004820152600c60248201526b496e76616c6964205553444360a01b6044820152606401610080565b6001600160a01b0392831660805290821660a0521660c05261018c565b80516001600160a01b0381168114610147575f5ffd5b919050565b5f5f5f6060848603121561015e575f5ffd5b61016784610131565b925061017560208501610131565b915061018360408501610131565b90509250925092565b60805160a05160c0516104b06101d65f395f8181609601528181610139015261023801525f818160d201526102ba01525f818160530152818161020901526102f601526104b05ff3fe608060405234801561000f575f5ffd5b506004361061004a575f3560e01c80632a709b141461004e5780633e413bee14610091578063ed3ab314146100b8578063f0ea15e4146100cd575b5f5ffd5b6100757f000000000000000000000000000000000000000000000000000000000000000081565b6040516001600160a01b03909116815260200160405180910390f35b6100757f000000000000000000000000000000000000000000000000000000000000000081565b6100cb6100c636600461039a565b6100f4565b005b6100757f000000000000000000000000000000000000000000000000000000000000000081565b610118811115610117576040516347e8b47560e11b815260040160405180910390fd5b6040516323b872dd60e01b8152336004820152306024820152604481018590527f00000000000000000000000000000000000000000000000000000000000000006001600160a01b0316906323b872dd906064016020604051808303815f875af1158015610187573d5f5f3e3d5ffd5b505050506040513d601f19601f820116820180604052508101906101ab9190610416565b6101f25760405162461bcd60e51b81526020600482015260146024820152731554d110c81d1c985b9cd9995c8819985a5b195960621b604482015260640160405180910390fd5b60405163095ea7b360e01b81526001600160a01b037f000000000000000000000000000000000000000000000000000000000000000081166004830152602482018690527f0000000000000000000000000000000000000000000000000000000000000000169063095ea7b3906044016020604051808303815f875af115801561027e573d5f5f3e3d5ffd5b505050506040513d601f19601f820116820180604052508101906102a29190610416565b50604051637f79f6df60e01b81526001600160a01b037f00000000000000000000000000000000000000000000000000000000000000008116600483015233602483015260448201869052606482018590527f00000000000000000000000000000000000000000000000000000000000000001690637f79f6df906084015f604051808303815f87803b158015610337575f5ffd5b505af1158015610349573d5f5f3e3d5ffd5b50505050336001600160a01b03167f41f58496005925957b15894d784d13704b968d98b2244ffbeec08dd9d13187d98584844260405161038c949392919061043c565b60405180910390a250505050565b5f5f5f5f606085870312156103ad575f5ffd5b8435935060208501359250604085013567ffffffffffffffff8111156103d1575f5ffd5b8501601f810187136103e1575f5ffd5b803567ffffffffffffffff8111156103f7575f5ffd5b876020828401011115610408575f5ffd5b949793965060200194505050565b5f60208284031215610426575f5ffd5b81518015158114610435575f5ffd5b9392505050565b84815260606020820152826060820152828460808301375f608084830101525f6080601f19601f86011683010190508260408301529594505050505056fea264697066735822122048adc5eb8430fea3f7cfc61cc1213ad06542963b5b22b7880dec36e4c9b68b9164736f6c634300081c0033",
  "linkReferences": {},
  "deployedLinkReferences": {},
  "immutableReferences": {
    "97": [
      {
        "length": 32,
        "start": 83
      },
      {
        "length": 32,
        "start": 521
      },
      {
        "length": 32,
        "start": 758
      }
    ],
    "100": [
      {
        "length": 32,
        "start": 210
      },
      {
        "length": 32,
        "start": 698
      }
    ],
    "104": [
      {
        "length": 32,
        "start": 150
      },
      {
        "length": 32,
        "start": 313
      },
      {
        "length": 32,
        "start": 568
      }
    ]
  },
  "inputSourceName": "project/contracts/BuyMessageWrapper.sol",
  "buildInfoId": "solc-0_8_28-d7a8f313a38b4a63cd0262e5674e91d0a15c48cb"
}