{
  "_format": "hh3-artifact-1",
  "contractName": "BuybackBurner",
  "sourceName": "contracts/BuybackBurner.sol",
  "abi": [
    {
      "inputs": [
        {
          "internalType": "address",
          "name": "_agentMemeToken",
          "type": "address"
        },
        {
          "internalType": "address",
          "name": "_usdc",
          "type": "address"
        },
        {
          "internalType": "address",
          "name": "_pancakeRouter",
          "type": "address"
        }
      ],
      "stateMutability": "nonpayable",
      "type": "constructor"
    },
    {
      "inputs": [],
      "name": "InsufficientOutput",
      "type": "error"
    },
    {
      "inputs": [
        {
          "internalType": "address",
          "name": "owner",
          "type": "address"
        }
      ],
      "name": "OwnableInvalidOwner",
      "type": "error"
    },
    {
      "inputs": [
        {
          "internalType": "address",
          "name": "account",
          "type": "address"
        }
      ],
      "name": "OwnableUnauthorizedAccount",
      "type": "error"
    },
    {
      "inputs": [],
      "name": "SwapFailed",
      "type": "error"
    },
    {
      "anonymous": false,
      "inputs": [
        {
          "indexed": false,
          "internalType": "uint256",
          "name": "usdcAmount",
          "type": "uint256"
        },
        {
          "indexed": false,
          "internalType": "uint256",
          "name": "tokensBurned",
          "type": "uint256"
        },
        {
          "indexed": false,
          "internalType": "uint256",
          "name": "timestamp",
          "type": "uint256"
        }
      ],
      "name": "BuybackExecuted",
      "type": "event"
    },
    {
      "anonymous": false,
      "inputs": [
        {
          "indexed": true,
          "internalType": "address",
          "name": "previousOwner",
          "type": "address"
        },
        {
          "indexed": true,
          "internalType": "address",
          "name": "newOwner",
          "type": "address"
        }
      ],
      "name": "OwnershipTransferred",
      "type": "event"
    },
    {
      "inputs": [],
      "name": "agentMemeToken",
      "outputs": [
        {
          "internalType": "contract IERC20",
          "name": "",
          "type": "address"
        }
      ],
      "stateMutability": "view",
      "type": "function"
    },
    {
      "inputs": [
        {
          "internalType": "uint256",
          "name": "usdcAmount",
          "type": "uint256"
        },
        {
          "internalType": "uint256",
          "name": "minTokensOut",
          "type": "uint256"
        },
        {
          "internalType": "uint256",
          "name": "deadline",
          "type": "uint256"
        }
      ],
      "name": "executeBuyback",
      "outputs": [],
      "stateMutability": "nonpayable",
      "type": "function"
    },
    {
      "inputs": [],
      "name": "owner",
      "outputs": [
        {
          "internalType": "address",
          "name": "",
          "type": "address"
        }
      ],
      "stateMutability": "view",
      "type": "function"
    },
    {
      "inputs": [],
      "name": "pancakeRouter",
      "outputs": [
        {
          "internalType": "address",
          "name": "",
          "type": "address"
        }
      ],
      "stateMutability": "view",
      "type": "function"
    },
    {
      "inputs": [
        {
          "internalType": "address",
          "name": "token",
          "type": "address"
        },
        {
          "internalType": "uint256",
          "name": "amount",
          "type": "uint256"
        }
      ],
      "name": "recoverToken",
      "outputs": [],
      "stateMutability": "nonpayable",
      "type": "function"
    },
    {
      "inputs": [],
      "name": "renounceOwnership",
      "outputs": [],
      "stateMutability": "nonpayable",
      "type": "function"
    },
    {
      "inputs": [],
      "name": "totalTokensBurned",
      "outputs": [
        {
          "internalType": "uint256",
          "name": "",
          "type": "uint256"
        }
      ],
      "stateMutability": "view",
      "type": "function"
    },
    {
      "inputs": [],
      "name": "totalUsdcSpent",
      "outputs": [
        {
          "internalType": "uint256",
          "name": "",
          "type": "uint256"
        }
      ],
      "stateMutability": "view",
      "type": "function"
    },
    {
      "inputs": [
        {
          "internalType": "address",
          "name": "newOwner",
          "type": "address"
        }
      ],
      "name": "transferOwnership",
      "outputs": [],
      "stateMutability": "nonpayable",
      "type": "function"
    },
    {
      "inputs": [],
      "name": "usdc",
      "outputs": [
        {
          "internalType": "contract IERC20",
          "name": "",
          "type": "address"
        }
      ],
      "stateMutability": "view",
      "type": "function"
    }
  ],
  "bytecode": "0x60e060405234801561000f575f5ffd5b50604051610e0b380380610e0b83398101604081905261002e916101e7565b338061005457604051631e4fbdf760e01b81525f60048201526024015b60405180910390fd5b61005d8161017d565b506001600160a01b0383166100b45760405162461bcd60e51b815260206004820152601560248201527f496e76616c696420746f6b656e20616464726573730000000000000000000000604482015260640161004b565b6001600160a01b03821661010a5760405162461bcd60e51b815260206004820152601460248201527f496e76616c696420555344432061646472657373000000000000000000000000604482015260640161004b565b6001600160a01b0381166101605760405162461bcd60e51b815260206004820152601660248201527f496e76616c696420726f75746572206164647265737300000000000000000000604482015260640161004b565b6001600160a01b0392831660805290821660a0521660c052610227565b5f80546001600160a01b038381166001600160a01b0319831681178455604051919092169283917f8be0079c531659141344cd1fd0a4f28419497f9722a3daafe3b4186f6b6457e09190a35050565b80516001600160a01b03811681146101e2575f5ffd5b919050565b5f5f5f606084860312156101f9575f5ffd5b610202846101cc565b9250610210602085016101cc565b915061021e604085016101cc565b90509250925092565b60805160a05160c051610b6e61029d5f395f81816101280152818161032501526104d301525f818160b901528181610259015281816103540152818161045401526107a201525f818161016f015281816103d60152818161047c015281816105a40152818161066301526108190152610b6e5ff3fe608060405234801561000f575f5ffd5b506004361061009b575f3560e01c8063c21ebd0711610063578063c21ebd0714610123578063d157e3011461014a578063ef5802ac14610161578063f0ea15e41461016a578063f2fde38b14610191575f5ffd5b80630d4ec5d01461009f5780633e413bee146100b4578063715018a6146100f85780638da5cb5b14610100578063b29a814014610110575b5f5ffd5b6100b26100ad366004610a20565b6101a4565b005b6100db7f000000000000000000000000000000000000000000000000000000000000000081565b6040516001600160a01b0390911681526020015b60405180910390f35b6100b2610785565b5f546001600160a01b03166100db565b6100b261011e366004610a64565b610798565b6100db7f000000000000000000000000000000000000000000000000000000000000000081565b61015360025481565b6040519081526020016100ef565b61015360015481565b6100db7f000000000000000000000000000000000000000000000000000000000000000081565b6100b261019f366004610a8c565b610968565b6101ac6109a5565b5f83116101f55760405162461bcd60e51b81526020600482015260126024820152710416d6f756e74206d757374206265203e20360741b60448201526064015b60405180910390fd5b428110156102375760405162461bcd60e51b815260206004820152600f60248201526e111958591b1a5b99481c185cdcd959608a1b60448201526064016101ec565b6040516323b872dd60e01b8152336004820152306024820152604481018490527f00000000000000000000000000000000000000000000000000000000000000006001600160a01b0316906323b872dd906064016020604051808303815f875af11580156102a7573d5f5f3e3d5ffd5b505050506040513d601f19601f820116820180604052508101906102cb9190610aac565b61030e5760405162461bcd60e51b81526020600482015260146024820152731554d110c81d1c985b9cd9995c8819985a5b195960621b60448201526064016101ec565b60405163095ea7b360e01b81526001600160a01b037f000000000000000000000000000000000000000000000000000000000000000081166004830152602482018590527f0000000000000000000000000000000000000000000000000000000000000000169063095ea7b3906044016020604051808303815f875af115801561039a573d5f5f3e3d5ffd5b505050506040513d601f19601f820116820180604052508101906103be9190610aac565b506040516370a0823160e01b81523060048201525f907f00000000000000000000000000000000000000000000000000000000000000006001600160a01b0316906370a0823190602401602060405180830381865afa158015610423573d5f5f3e3d5ffd5b505050506040513d601f19601f820116820180604052508101906104479190610acb565b6040516001600160a01b037f0000000000000000000000000000000000000000000000000000000000000000811660248301527f000000000000000000000000000000000000000000000000000000000000000081166044830152610bb8606483015230608483015260a4820185905260c4820187905260e482018690525f61010483018190529293507f000000000000000000000000000000000000000000000000000000000000000016906101240160408051601f198184030181529181526020820180516001600160e01b031663414bf38960e01b1790525161052d9190610ae2565b5f604051808303815f865af19150503d805f8114610566576040519150601f19603f3d011682016040523d82523d5f602084013e61056b565b606091505b505090508061058d5760405163081ceff360e41b815260040160405180910390fd5b6040516370a0823160e01b81523060048201525f907f00000000000000000000000000000000000000000000000000000000000000006001600160a01b0316906370a0823190602401602060405180830381865afa1580156105f1573d5f5f3e3d5ffd5b505050506040513d601f19601f820116820180604052508101906106159190610acb565b90505f6106228483610b0c565b9050858110156106455760405163bb2875c360e01b815260040160405180910390fd5b60405163a9059cbb60e01b815261dead6004820152602481018290527f00000000000000000000000000000000000000000000000000000000000000006001600160a01b03169063a9059cbb906044016020604051808303815f875af11580156106b1573d5f5f3e3d5ffd5b505050506040513d601f19601f820116820180604052508101906106d59190610aac565b61070f5760405162461bcd60e51b815260206004820152600b60248201526a109d5c9b8819985a5b195960aa1b60448201526064016101ec565b8660015f8282546107209190610b25565b925050819055508060025f8282546107389190610b25565b90915550506040805188815260208101839052428183015290517ff7e3493d2eb6a455012bf7667cb0e1563155e97974bcf902b23dc50b0a76bb1f9181900360600190a150505050505050565b61078d6109a5565b6107965f6109d1565b565b6107a06109a5565b7f00000000000000000000000000000000000000000000000000000000000000006001600160a01b0316826001600160a01b0316036108175760405162461bcd60e51b815260206004820152601360248201527243616e6e6f74207265636f766572205553444360681b60448201526064016101ec565b7f00000000000000000000000000000000000000000000000000000000000000006001600160a01b0316826001600160a01b0316036108985760405162461bcd60e51b815260206004820152601860248201527f43616e6e6f74207265636f766572204167656e744d656d65000000000000000060448201526064016101ec565b816001600160a01b031663a9059cbb6108b85f546001600160a01b031690565b6040516001600160e01b031960e084901b1681526001600160a01b039091166004820152602481018490526044016020604051808303815f875af1158015610902573d5f5f3e3d5ffd5b505050506040513d601f19601f820116820180604052508101906109269190610aac565b6109645760405162461bcd60e51b815260206004820152600f60248201526e149958dbdd995c9e4819985a5b1959608a1b60448201526064016101ec565b5050565b6109706109a5565b6001600160a01b03811661099957604051631e4fbdf760e01b81525f60048201526024016101ec565b6109a2816109d1565b50565b5f546001600160a01b031633146107965760405163118cdaa760e01b81523360048201526024016101ec565b5f80546001600160a01b038381166001600160a01b0319831681178455604051919092169283917f8be0079c531659141344cd1fd0a4f28419497f9722a3daafe3b4186f6b6457e09190a35050565b5f5f5f60608486031215610a32575f5ffd5b505081359360208301359350604090920135919050565b80356001600160a01b0381168114610a5f575f5ffd5b919050565b5f5f60408385031215610a75575f5ffd5b610a7e83610a49565b946020939093013593505050565b5f60208284031215610a9c575f5ffd5b610aa582610a49565b9392505050565b5f60208284031215610abc575f5ffd5b81518015158114610aa5575f5ffd5b5f60208284031215610adb575f5ffd5b5051919050565b5f82518060208501845e5f920191825250919050565b634e487b7160e01b5f52601160045260245ffd5b81810381811115610b1f57610b1f610af8565b92915050565b80820180821115610b1f57610b1f610af856fea26469706673582212200dae5bf13e5c1ddfd25c70075f632f7518d6bda33b9b670bf228c046556a7c0464736f6c634300081c0033",
  "linkReferences": {},
  "deployedLinkReferences": {},
  "immutableReferences": {
    "266": [
      {
        "length": 32,
        "start": 367
      },
      {
        "length": 32,
        "start": 982
      },
      {
        "length": 32,
        "start": 1148
      },
      {
        "length": 32,
        "start": 1444
      },
      {
        "length": 32,
        "start": 1635
      },
      {
        "length": 32,
        "start": 2073
      }
    ],
    "270": [
      {
        "length": 32,
        "start": 185
      },
      {
        "length": 32,
        "start": 601
      },
      {
        "length": 32,
        "start": 852
      },
      {
        "length": 32,
        "start": 1108
      },
      {
        "length": 32,
        "start": 1954
      }
    ],
    "273": [
      {
        "length": 32,
        "start": 296
      },
      {
        "length": 32,
        "start": 805
      },
      {
        "length": 32,
        "start": 1235
      }
    ]
  },
  "inputSourceName": "project/contracts/BuybackBurner.sol",
  "buildInfoId": "solc-0_8_28-1d3af21f666ef1ec51a934528b15028306f4258c"
}