{
  "_format": "hh3-artifact-1",
  "contractName": "ManifestoLog",
  "sourceName": "contracts/ManifestoLog.sol",
  "abi": [
    {
      "inputs": [
        {
          "internalType": "address",
          "name": "_agent",
          "type": "address"
        }
      ],
      "stateMutability": "nonpayable",
      "type": "constructor"
    },
    {
      "inputs": [],
      "name": "OnlyAgent",
      "type": "error"
    },
    {
      "anonymous": false,
      "inputs": [
        {
          "indexed": true,
          "internalType": "uint256",
          "name": "id",
          "type": "uint256"
        },
        {
          "indexed": true,
          "internalType": "bytes32",
          "name": "tradeId",
          "type": "bytes32"
        },
        {
          "indexed": false,
          "internalType": "string",
          "name": "reasoning",
          "type": "string"
        },
        {
          "indexed": false,
          "internalType": "uint256",
          "name": "timestamp",
          "type": "uint256"
        }
      ],
      "name": "AutopsyPublished",
      "type": "event"
    },
    {
      "anonymous": false,
      "inputs": [
        {
          "indexed": true,
          "internalType": "uint256",
          "name": "id",
          "type": "uint256"
        },
        {
          "indexed": false,
          "internalType": "string",
          "name": "reasoning",
          "type": "string"
        },
        {
          "indexed": false,
          "internalType": "uint256",
          "name": "timestamp",
          "type": "uint256"
        },
        {
          "indexed": true,
          "internalType": "bytes32",
          "name": "tradeId",
          "type": "bytes32"
        },
        {
          "indexed": false,
          "internalType": "bool",
          "name": "isPulse",
          "type": "bool"
        }
      ],
      "name": "ManifestoPublished",
      "type": "event"
    },
    {
      "inputs": [],
      "name": "agent",
      "outputs": [
        {
          "internalType": "address",
          "name": "",
          "type": "address"
        }
      ],
      "stateMutability": "view",
      "type": "function"
    },
    {
      "inputs": [
        {
          "internalType": "uint256",
          "name": "id",
          "type": "uint256"
        }
      ],
      "name": "getManifesto",
      "outputs": [
        {
          "components": [
            {
              "internalType": "uint256",
              "name": "id",
              "type": "uint256"
            },
            {
              "internalType": "string",
              "name": "reasoning",
              "type": "string"
            },
            {
              "internalType": "uint256",
              "name": "timestamp",
              "type": "uint256"
            },
            {
              "internalType": "bytes32",
              "name": "tradeId",
              "type": "bytes32"
            },
            {
              "internalType": "bool",
              "name": "isPulse",
              "type": "bool"
            }
          ],
          "internalType": "struct ManifestoLog.Manifesto",
          "name": "",
          "type": "tuple"
        }
      ],
      "stateMutability": "view",
      "type": "function"
    },
    {
      "inputs": [
        {
          "internalType": "uint256",
          "name": "count",
          "type": "uint256"
        }
      ],
      "name": "getRecentManifestos",
      "outputs": [
        {
          "components": [
            {
              "internalType": "uint256",
              "name": "id",
              "type": "uint256"
            },
            {
              "internalType": "string",
              "name": "reasoning",
              "type": "string"
            },
            {
              "internalType": "uint256",
              "name": "timestamp",
              "type": "uint256"
            },
            {
              "internalType": "bytes32",
              "name": "tradeId",
              "type": "bytes32"
            },
            {
              "internalType": "bool",
              "name": "isPulse",
              "type": "bool"
            }
          ],
          "internalType": "struct ManifestoLog.Manifesto[]",
          "name": "",
          "type": "tuple[]"
        }
      ],
      "stateMutability": "view",
      "type": "function"
    },
    {
      "inputs": [],
      "name": "manifestoCount",
      "outputs": [
        {
          "internalType": "uint256",
          "name": "",
          "type": "uint256"
        }
      ],
      "stateMutability": "view",
      "type": "function"
    },
    {
      "inputs": [
        {
          "internalType": "uint256",
          "name": "",
          "type": "uint256"
        }
      ],
      "name": "manifestos",
      "outputs": [
        {
          "internalType": "uint256",
          "name": "id",
          "type": "uint256"
        },
        {
          "internalType": "string",
          "name": "reasoning",
          "type": "string"
        },
        {
          "internalType": "uint256",
          "name": "timestamp",
          "type": "uint256"
        },
        {
          "internalType": "bytes32",
          "name": "tradeId",
          "type": "bytes32"
        },
        {
          "internalType": "bool",
          "name": "isPulse",
          "type": "bool"
        }
      ],
      "stateMutability": "view",
      "type": "function"
    },
    {
      "inputs": [
        {
          "internalType": "bytes32",
          "name": "tradeId",
          "type": "bytes32"
        },
        {
          "internalType": "string",
          "name": "reasoning",
          "type": "string"
        }
      ],
      "name": "publishAutopsy",
      "outputs": [],
      "stateMutability": "nonpayable",
      "type": "function"
    },
    {
      "inputs": [
        {
          "internalType": "string",
          "name": "reasoning",
          "type": "string"
        },
        {
          "internalType": "bytes32",
          "name": "tradeId",
          "type": "bytes32"
        },
        {
          "internalType": "bool",
          "name": "isPulse",
          "type": "bool"
        }
      ],
      "name": "publishManifesto",
      "outputs": [],
      "stateMutability": "nonpayable",
      "type": "function"
    }
  ],
  "bytecode": "0x60a060405234801561000f575f5ffd5b50604051610ec6380380610ec683398101604081905261002e91610099565b6001600160a01b0381166100885760405162461bcd60e51b815260206004820152601c60248201527f4167656e742063616e6e6f74206265207a65726f206164647265737300000000604482015260640160405180910390fd5b6001600160a01b03166080526100c6565b5f602082840312156100a9575f5ffd5b81516001600160a01b03811681146100bf575f5ffd5b9392505050565b608051610dda6100ec5f395f818161010e015281816102d201526105050152610dda5ff3fe608060405234801561000f575f5ffd5b506004361061007a575f3560e01c8063bf46d48011610058578063bf46d480146100d2578063c651389a146100e5578063f5ff5c7614610109578063ff68905914610148575f5ffd5b8063446665581461007e578063504d7628146100a75780635a0eecfa146100bd575b5f5ffd5b61009161008c366004610954565b610168565b60405161009e91906109e3565b60405180910390f35b6100af5f5481565b60405190815260200161009e565b6100d06100cb366004610a41565b6102c7565b005b6100d06100e0366004610a89565b6104fa565b6100f86100f3366004610954565b6106e7565b60405161009e959493929190610ae8565b6101307f000000000000000000000000000000000000000000000000000000000000000081565b6040516001600160a01b03909116815260200161009e565b61015b610156366004610954565b61079f565b60405161009e9190610b1f565b6101986040518060a001604052805f8152602001606081526020015f81526020015f81526020015f151581525090565b5f5482106101ed5760405162461bcd60e51b815260206004820152601860248201527f4d616e69666573746f20646f6573206e6f74206578697374000000000000000060448201526064015b60405180910390fd5b5f82815260016020818152604092839020835160a081019094528054845291820180549184019161021d90610b82565b80601f016020809104026020016040519081016040528092919081815260200182805461024990610b82565b80156102945780601f1061026b57610100808354040283529160200191610294565b820191905f5260205f20905b81548152906001019060200180831161027757829003601f168201915b5050509183525050600282015460208201526003820154604082015260049091015460ff16151560609091015292915050565b336001600160a01b037f0000000000000000000000000000000000000000000000000000000000000000161461031057604051637362044160e01b815260040160405180910390fd5b8261035d5760405162461bcd60e51b815260206004820152601d60248201527f547261646520494420726571756972656420666f72206175746f70737900000060448201526064016101e4565b806103a65760405162461bcd60e51b8152602060048201526019602482015278526561736f6e696e672063616e6e6f7420626520656d70747960381b60448201526064016101e4565b6101f48111156103ed5760405162461bcd60e51b8152602060048201526012602482015271526561736f6e696e6720746f6f206c6f6e6760701b60448201526064016101e4565b5f805481806103fb83610bce565b9190505590506040518060a0016040528082815260200184848080601f0160208091040260200160405190810160405280939291908181526020018383808284375f92018290525093855250504260208085019190915260408085018a9052606090940183905285835260018082529390922084518155918401519192830191610486915082610c46565b506040828101516002830155606083015160038301556080909201516004909101805460ff191691151591909117905551849082907f472393c884bd502eff59c4015da141a49e495852de0021fb70bd43ad7c3e2f10906104ec90879087904290610d29565b60405180910390a350505050565b336001600160a01b037f0000000000000000000000000000000000000000000000000000000000000000161461054357604051637362044160e01b815260040160405180910390fd5b8261058c5760405162461bcd60e51b8152602060048201526019602482015278526561736f6e696e672063616e6e6f7420626520656d70747960381b60448201526064016101e4565b6101f48311156105d35760405162461bcd60e51b8152602060048201526012602482015271526561736f6e696e6720746f6f206c6f6e6760701b60448201526064016101e4565b5f805481806105e183610bce565b9190505590506040518060a0016040528082815260200186868080601f0160208091040260200160405190810160405280939291908181526020018383808284375f920182905250938552505042602080850191909152604080850189905287151560609095019490945285835260018082529390922084518155918401519192830191610670915082610c46565b506040828101516002830155606083015160038301556080909201516004909101805460ff191691151591909117905551839082907f24db0c6200986c9320f31670092039a8009fb42d40fe188fc96ea3d9e37df937906106d8908990899042908990610d4c565b60405180910390a35050505050565b600160208190525f91825260409091208054918101805461070790610b82565b80601f016020809104026020016040519081016040528092919081815260200182805461073390610b82565b801561077e5780601f106107555761010080835404028352916020019161077e565b820191905f5260205f20905b81548152906001019060200180831161076157829003601f168201915b50505050600283015460038401546004909401549293909290915060ff1685565b5f54606090808311156107b0578092505b5f8367ffffffffffffffff8111156107ca576107ca610be6565b60405190808252806020026020018201604052801561082b57816020015b6108186040518060a001604052805f8152602001606081526020015f81526020015f81526020015f151581525090565b8152602001906001900390816107e85790505b5090505f5b8481101561094c5760015f826108468387610d77565b6108509190610d77565b81526020019081526020015f206040518060a00160405290815f820154815260200160018201805461088190610b82565b80601f01602080910402602001604051908101604052809291908181526020018280546108ad90610b82565b80156108f85780601f106108cf576101008083540402835291602001916108f8565b820191905f5260205f20905b8154815290600101906020018083116108db57829003601f168201915b5050509183525050600282015460208201526003820154604082015260049091015460ff161515606090910152825183908390811061093957610939610d90565b6020908102919091010152600101610830565b509392505050565b5f60208284031215610964575f5ffd5b5035919050565b5f81518084528060208401602086015e5f602082860101526020601f19601f83011685010191505092915050565b805182525f602082015160a060208501526109b760a085018261096b565b905060408301516040850152606083015160608501526080830151151560808501528091505092915050565b602081525f6109f56020830184610999565b9392505050565b5f5f83601f840112610a0c575f5ffd5b50813567ffffffffffffffff811115610a23575f5ffd5b602083019150836020828501011115610a3a575f5ffd5b9250929050565b5f5f5f60408486031215610a53575f5ffd5b83359250602084013567ffffffffffffffff811115610a70575f5ffd5b610a7c868287016109fc565b9497909650939450505050565b5f5f5f5f60608587031215610a9c575f5ffd5b843567ffffffffffffffff811115610ab2575f5ffd5b610abe878288016109fc565b9095509350506020850135915060408501358015158114610add575f5ffd5b939692955090935050565b85815260a060208201525f610b0060a083018761096b565b6040830195909552506060810192909252151560809091015292915050565b5f602082016020835280845180835260408501915060408160051b8601019250602086015f5b82811015610b7657603f19878603018452610b61858351610999565b94506020938401939190910190600101610b45565b50929695505050505050565b600181811c90821680610b9657607f821691505b602082108103610bb457634e487b7160e01b5f52602260045260245ffd5b50919050565b634e487b7160e01b5f52601160045260245ffd5b5f60018201610bdf57610bdf610bba565b5060010190565b634e487b7160e01b5f52604160045260245ffd5b601f821115610c4157805f5260205f20601f840160051c81016020851015610c1f5750805b601f840160051c820191505b81811015610c3e575f8155600101610c2b565b50505b505050565b815167ffffffffffffffff811115610c6057610c60610be6565b610c7481610c6e8454610b82565b84610bfa565b6020601f821160018114610ca6575f8315610c8f5750848201515b5f19600385901b1c1916600184901b178455610c3e565b5f84815260208120601f198516915b82811015610cd55787850151825560209485019460019092019101610cb5565b5084821015610cf257868401515f19600387901b60f8161c191681555b50505050600190811b01905550565b81835281816020850137505f828201602090810191909152601f909101601f19169091010190565b604081525f610d3c604083018587610d01565b9050826020830152949350505050565b606081525f610d5f606083018688610d01565b60208301949094525090151560409091015292915050565b81810381811115610d8a57610d8a610bba565b92915050565b634e487b7160e01b5f52603260045260245ffdfea2646970667358221220dd7a38cdf7419454cafc03b8cdae16057bfab80528211a27b88148ac42e2a4c164736f6c634300081c0033",
  "linkReferences": {},
  "deployedLinkReferences": {},
  "immutableReferences": {
    "5": [
      {
        "length": 32,
        "start": 270
      },
      {
        "length": 32,
        "start": 722
      },
      {
        "length": 32,
        "start": 1285
      }
    ]
  },
  "inputSourceName": "project/contracts/ManifestoLog.sol",
  "buildInfoId": "solc-0_8_28-61034cb0a8593134d3d6d096f17d3f4350c7cd5c"
}