{
  "_format": "hh3-artifact-1",
  "contractName": "AgentVault",
  "sourceName": "contracts/AgentVault.sol",
  "abi": [
    {
      "inputs": [
        {
          "internalType": "contract IERC20",
          "name": "_asset",
          "type": "address"
        },
        {
          "internalType": "address",
          "name": "_agentMemeToken",
          "type": "address"
        },
        {
          "internalType": "address",
          "name": "_agent",
          "type": "address"
        }
      ],
      "stateMutability": "nonpayable",
      "type": "constructor"
    },
    {
      "inputs": [
        {
          "internalType": "address",
          "name": "spender",
          "type": "address"
        },
        {
          "internalType": "uint256",
          "name": "allowance",
          "type": "uint256"
        },
        {
          "internalType": "uint256",
          "name": "needed",
          "type": "uint256"
        }
      ],
      "name": "ERC20InsufficientAllowance",
      "type": "error"
    },
    {
      "inputs": [
        {
          "internalType": "address",
          "name": "sender",
          "type": "address"
        },
        {
          "internalType": "uint256",
          "name": "balance",
          "type": "uint256"
        },
        {
          "internalType": "uint256",
          "name": "needed",
          "type": "uint256"
        }
      ],
      "name": "ERC20InsufficientBalance",
      "type": "error"
    },
    {
      "inputs": [
        {
          "internalType": "address",
          "name": "approver",
          "type": "address"
        }
      ],
      "name": "ERC20InvalidApprover",
      "type": "error"
    },
    {
      "inputs": [
        {
          "internalType": "address",
          "name": "receiver",
          "type": "address"
        }
      ],
      "name": "ERC20InvalidReceiver",
      "type": "error"
    },
    {
      "inputs": [
        {
          "internalType": "address",
          "name": "sender",
          "type": "address"
        }
      ],
      "name": "ERC20InvalidSender",
      "type": "error"
    },
    {
      "inputs": [
        {
          "internalType": "address",
          "name": "spender",
          "type": "address"
        }
      ],
      "name": "ERC20InvalidSpender",
      "type": "error"
    },
    {
      "inputs": [
        {
          "internalType": "address",
          "name": "receiver",
          "type": "address"
        },
        {
          "internalType": "uint256",
          "name": "assets",
          "type": "uint256"
        },
        {
          "internalType": "uint256",
          "name": "max",
          "type": "uint256"
        }
      ],
      "name": "ERC4626ExceededMaxDeposit",
      "type": "error"
    },
    {
      "inputs": [
        {
          "internalType": "address",
          "name": "receiver",
          "type": "address"
        },
        {
          "internalType": "uint256",
          "name": "shares",
          "type": "uint256"
        },
        {
          "internalType": "uint256",
          "name": "max",
          "type": "uint256"
        }
      ],
      "name": "ERC4626ExceededMaxMint",
      "type": "error"
    },
    {
      "inputs": [
        {
          "internalType": "address",
          "name": "owner",
          "type": "address"
        },
        {
          "internalType": "uint256",
          "name": "shares",
          "type": "uint256"
        },
        {
          "internalType": "uint256",
          "name": "max",
          "type": "uint256"
        }
      ],
      "name": "ERC4626ExceededMaxRedeem",
      "type": "error"
    },
    {
      "inputs": [
        {
          "internalType": "address",
          "name": "owner",
          "type": "address"
        },
        {
          "internalType": "uint256",
          "name": "assets",
          "type": "uint256"
        },
        {
          "internalType": "uint256",
          "name": "max",
          "type": "uint256"
        }
      ],
      "name": "ERC4626ExceededMaxWithdraw",
      "type": "error"
    },
    {
      "inputs": [],
      "name": "EpochNotActive",
      "type": "error"
    },
    {
      "inputs": [],
      "name": "EpochStillActive",
      "type": "error"
    },
    {
      "inputs": [],
      "name": "InsufficientDeployableCapital",
      "type": "error"
    },
    {
      "inputs": [],
      "name": "InsufficientTokens",
      "type": "error"
    },
    {
      "inputs": [],
      "name": "OnlyAgent",
      "type": "error"
    },
    {
      "inputs": [
        {
          "internalType": "address",
          "name": "owner",
          "type": "address"
        }
      ],
      "name": "OwnableInvalidOwner",
      "type": "error"
    },
    {
      "inputs": [
        {
          "internalType": "address",
          "name": "account",
          "type": "address"
        }
      ],
      "name": "OwnableUnauthorizedAccount",
      "type": "error"
    },
    {
      "inputs": [],
      "name": "ReentrancyGuardReentrantCall",
      "type": "error"
    },
    {
      "inputs": [
        {
          "internalType": "address",
          "name": "token",
          "type": "address"
        }
      ],
      "name": "SafeERC20FailedOperation",
      "type": "error"
    },
    {
      "inputs": [],
      "name": "TipTooLong",
      "type": "error"
    },
    {
      "inputs": [],
      "name": "TradeAlreadyAttributed",
      "type": "error"
    },
    {
      "anonymous": false,
      "inputs": [
        {
          "indexed": true,
          "internalType": "address",
          "name": "owner",
          "type": "address"
        },
        {
          "indexed": true,
          "internalType": "address",
          "name": "spender",
          "type": "address"
        },
        {
          "indexed": false,
          "internalType": "uint256",
          "name": "value",
          "type": "uint256"
        }
      ],
      "name": "Approval",
      "type": "event"
    },
    {
      "anonymous": false,
      "inputs": [
        {
          "indexed": false,
          "internalType": "uint256",
          "name": "amount",
          "type": "uint256"
        },
        {
          "indexed": false,
          "internalType": "uint256",
          "name": "timestamp",
          "type": "uint256"
        }
      ],
      "name": "CapitalDeployed",
      "type": "event"
    },
    {
      "anonymous": false,
      "inputs": [
        {
          "indexed": false,
          "internalType": "uint256",
          "name": "amount",
          "type": "uint256"
        },
        {
          "indexed": false,
          "internalType": "int256",
          "name": "pnl",
          "type": "int256"
        },
        {
          "indexed": false,
          "internalType": "uint256",
          "name": "timestamp",
          "type": "uint256"
        }
      ],
      "name": "CapitalReturned",
      "type": "event"
    },
    {
      "anonymous": false,
      "inputs": [
        {
          "indexed": true,
          "internalType": "uint256",
          "name": "epoch",
          "type": "uint256"
        },
        {
          "indexed": false,
          "internalType": "uint256",
          "name": "tipIndex",
          "type": "uint256"
        },
        {
          "indexed": true,
          "internalType": "address",
          "name": "tipper",
          "type": "address"
        }
      ],
      "name": "ContrarianFlagged",
      "type": "event"
    },
    {
      "anonymous": false,
      "inputs": [
        {
          "indexed": true,
          "internalType": "address",
          "name": "sender",
          "type": "address"
        },
        {
          "indexed": true,
          "internalType": "address",
          "name": "owner",
          "type": "address"
        },
        {
          "indexed": false,
          "internalType": "uint256",
          "name": "assets",
          "type": "uint256"
        },
        {
          "indexed": false,
          "internalType": "uint256",
          "name": "shares",
          "type": "uint256"
        }
      ],
      "name": "Deposit",
      "type": "event"
    },
    {
      "anonymous": false,
      "inputs": [
        {
          "indexed": true,
          "internalType": "uint256",
          "name": "epochNumber",
          "type": "uint256"
        },
        {
          "indexed": false,
          "internalType": "int256",
          "name": "profit",
          "type": "int256"
        },
        {
          "indexed": false,
          "internalType": "uint256",
          "name": "settleTime",
          "type": "uint256"
        }
      ],
      "name": "EpochSettled",
      "type": "event"
    },
    {
      "anonymous": false,
      "inputs": [
        {
          "indexed": true,
          "internalType": "uint256",
          "name": "epochNumber",
          "type": "uint256"
        },
        {
          "indexed": false,
          "internalType": "uint256",
          "name": "startTime",
          "type": "uint256"
        }
      ],
      "name": "EpochStarted",
      "type": "event"
    },
    {
      "anonymous": false,
      "inputs": [
        {
          "indexed": true,
          "internalType": "address",
          "name": "previousOwner",
          "type": "address"
        },
        {
          "indexed": true,
          "internalType": "address",
          "name": "newOwner",
          "type": "address"
        }
      ],
      "name": "OwnershipTransferred",
      "type": "event"
    },
    {
      "anonymous": false,
      "inputs": [
        {
          "indexed": true,
          "internalType": "uint256",
          "name": "pairIndex",
          "type": "uint256"
        },
        {
          "indexed": false,
          "internalType": "uint256",
          "name": "timestamp",
          "type": "uint256"
        }
      ],
      "name": "PairApproved",
      "type": "event"
    },
    {
      "anonymous": false,
      "inputs": [
        {
          "indexed": true,
          "internalType": "uint256",
          "name": "pairIndex",
          "type": "uint256"
        },
        {
          "indexed": true,
          "internalType": "address",
          "name": "proposer",
          "type": "address"
        },
        {
          "indexed": false,
          "internalType": "string",
          "name": "rationale",
          "type": "string"
        },
        {
          "indexed": false,
          "internalType": "uint256",
          "name": "timestamp",
          "type": "uint256"
        }
      ],
      "name": "PairProposed",
      "type": "event"
    },
    {
      "anonymous": false,
      "inputs": [
        {
          "indexed": true,
          "internalType": "uint256",
          "name": "epoch",
          "type": "uint256"
        },
        {
          "indexed": false,
          "internalType": "uint256",
          "name": "bonusPool",
          "type": "uint256"
        }
      ],
      "name": "TipBonusesDistributed",
      "type": "event"
    },
    {
      "anonymous": false,
      "inputs": [
        {
          "indexed": true,
          "internalType": "address",
          "name": "tipper",
          "type": "address"
        },
        {
          "indexed": false,
          "internalType": "string",
          "name": "content",
          "type": "string"
        },
        {
          "indexed": false,
          "internalType": "uint256",
          "name": "weight",
          "type": "uint256"
        },
        {
          "indexed": false,
          "internalType": "uint256",
          "name": "epoch",
          "type": "uint256"
        }
      ],
      "name": "TipSubmitted",
      "type": "event"
    },
    {
      "anonymous": false,
      "inputs": [
        {
          "indexed": true,
          "internalType": "bytes32",
          "name": "tradeId",
          "type": "bytes32"
        },
        {
          "indexed": true,
          "internalType": "address",
          "name": "tipper",
          "type": "address"
        },
        {
          "indexed": false,
          "internalType": "uint256",
          "name": "tipIndex",
          "type": "uint256"
        }
      ],
      "name": "TradeAttributed",
      "type": "event"
    },
    {
      "anonymous": false,
      "inputs": [
        {
          "indexed": true,
          "internalType": "address",
          "name": "from",
          "type": "address"
        },
        {
          "indexed": true,
          "internalType": "address",
          "name": "to",
          "type": "address"
        },
        {
          "indexed": false,
          "internalType": "uint256",
          "name": "value",
          "type": "uint256"
        }
      ],
      "name": "Transfer",
      "type": "event"
    },
    {
      "anonymous": false,
      "inputs": [
        {
          "indexed": true,
          "internalType": "address",
          "name": "sender",
          "type": "address"
        },
        {
          "indexed": true,
          "internalType": "address",
          "name": "receiver",
          "type": "address"
        },
        {
          "indexed": true,
          "internalType": "address",
          "name": "owner",
          "type": "address"
        },
        {
          "indexed": false,
          "internalType": "uint256",
          "name": "assets",
          "type": "uint256"
        },
        {
          "indexed": false,
          "internalType": "uint256",
          "name": "shares",
          "type": "uint256"
        }
      ],
      "name": "Withdraw",
      "type": "event"
    },
    {
      "anonymous": false,
      "inputs": [
        {
          "indexed": true,
          "internalType": "address",
          "name": "user",
          "type": "address"
        },
        {
          "indexed": false,
          "internalType": "uint256",
          "name": "shares",
          "type": "uint256"
        },
        {
          "indexed": false,
          "internalType": "uint256",
          "name": "assets",
          "type": "uint256"
        },
        {
          "indexed": false,
          "internalType": "uint256",
          "name": "timestamp",
          "type": "uint256"
        }
      ],
      "name": "WithdrawalProcessed",
      "type": "event"
    },
    {
      "anonymous": false,
      "inputs": [
        {
          "indexed": true,
          "internalType": "address",
          "name": "user",
          "type": "address"
        },
        {
          "indexed": false,
          "internalType": "uint256",
          "name": "shares",
          "type": "uint256"
        },
        {
          "indexed": false,
          "internalType": "uint256",
          "name": "timestamp",
          "type": "uint256"
        }
      ],
      "name": "WithdrawalRequested",
      "type": "event"
    },
    {
      "inputs": [],
      "name": "MIN_PROPOSAL_TOKENS",
      "outputs": [
        {
          "internalType": "uint256",
          "name": "",
          "type": "uint256"
        }
      ],
      "stateMutability": "view",
      "type": "function"
    },
    {
      "inputs": [],
      "name": "MIN_TIP_TOKENS",
      "outputs": [
        {
          "internalType": "uint256",
          "name": "",
          "type": "uint256"
        }
      ],
      "stateMutability": "view",
      "type": "function"
    },
    {
      "inputs": [],
      "name": "agent",
      "outputs": [
        {
          "internalType": "address",
          "name": "",
          "type": "address"
        }
      ],
      "stateMutability": "view",
      "type": "function"
    },
    {
      "inputs": [],
      "name": "agentMemeToken",
      "outputs": [
        {
          "internalType": "contract IAgentMemeToken",
          "name": "",
          "type": "address"
        }
      ],
      "stateMutability": "view",
      "type": "function"
    },
    {
      "inputs": [
        {
          "internalType": "address",
          "name": "owner",
          "type": "address"
        },
        {
          "internalType": "address",
          "name": "spender",
          "type": "address"
        }
      ],
      "name": "allowance",
      "outputs": [
        {
          "internalType": "uint256",
          "name": "",
          "type": "uint256"
        }
      ],
      "stateMutability": "view",
      "type": "function"
    },
    {
      "inputs": [
        {
          "internalType": "address",
          "name": "spender",
          "type": "address"
        },
        {
          "internalType": "uint256",
          "name": "value",
          "type": "uint256"
        }
      ],
      "name": "approve",
      "outputs": [
        {
          "internalType": "bool",
          "name": "",
          "type": "bool"
        }
      ],
      "stateMutability": "nonpayable",
      "type": "function"
    },
    {
      "inputs": [
        {
          "internalType": "uint256",
          "name": "pairIndex",
          "type": "uint256"
        }
      ],
      "name": "approvePair",
      "outputs": [],
      "stateMutability": "nonpayable",
      "type": "function"
    },
    {
      "inputs": [],
      "name": "asset",
      "outputs": [
        {
          "internalType": "address",
          "name": "",
          "type": "address"
        }
      ],
      "stateMutability": "view",
      "type": "function"
    },
    {
      "inputs": [
        {
          "internalType": "bytes32",
          "name": "tradeId",
          "type": "bytes32"
        },
        {
          "internalType": "address",
          "name": "tipper",
          "type": "address"
        },
        {
          "internalType": "uint256",
          "name": "tipIndex",
          "type": "uint256"
        }
      ],
      "name": "attributeTrade",
      "outputs": [],
      "stateMutability": "nonpayable",
      "type": "function"
    },
    {
      "inputs": [
        {
          "internalType": "address",
          "name": "account",
          "type": "address"
        }
      ],
      "name": "balanceOf",
      "outputs": [
        {
          "internalType": "uint256",
          "name": "",
          "type": "uint256"
        }
      ],
      "stateMutability": "view",
      "type": "function"
    },
    {
      "inputs": [],
      "name": "buybackBurner",
      "outputs": [
        {
          "internalType": "contract IBuybackBurner",
          "name": "",
          "type": "address"
        }
      ],
      "stateMutability": "view",
      "type": "function"
    },
    {
      "inputs": [
        {
          "internalType": "uint256",
          "name": "shares",
          "type": "uint256"
        }
      ],
      "name": "convertToAssets",
      "outputs": [
        {
          "internalType": "uint256",
          "name": "",
          "type": "uint256"
        }
      ],
      "stateMutability": "view",
      "type": "function"
    },
    {
      "inputs": [
        {
          "internalType": "uint256",
          "name": "assets",
          "type": "uint256"
        }
      ],
      "name": "convertToShares",
      "outputs": [
        {
          "internalType": "uint256",
          "name": "",
          "type": "uint256"
        }
      ],
      "stateMutability": "view",
      "type": "function"
    },
    {
      "inputs": [],
      "name": "decimals",
      "outputs": [
        {
          "internalType": "uint8",
          "name": "",
          "type": "uint8"
        }
      ],
      "stateMutability": "view",
      "type": "function"
    },
    {
      "inputs": [],
      "name": "deployedCapital",
      "outputs": [
        {
          "internalType": "uint256",
          "name": "",
          "type": "uint256"
        }
      ],
      "stateMutability": "view",
      "type": "function"
    },
    {
      "inputs": [
        {
          "internalType": "uint256",
          "name": "assets",
          "type": "uint256"
        },
        {
          "internalType": "address",
          "name": "receiver",
          "type": "address"
        }
      ],
      "name": "deposit",
      "outputs": [
        {
          "internalType": "uint256",
          "name": "",
          "type": "uint256"
        }
      ],
      "stateMutability": "nonpayable",
      "type": "function"
    },
    {
      "inputs": [],
      "name": "epochActive",
      "outputs": [
        {
          "internalType": "bool",
          "name": "",
          "type": "bool"
        }
      ],
      "stateMutability": "view",
      "type": "function"
    },
    {
      "inputs": [],
      "name": "epochDuration",
      "outputs": [
        {
          "internalType": "uint256",
          "name": "",
          "type": "uint256"
        }
      ],
      "stateMutability": "view",
      "type": "function"
    },
    {
      "inputs": [],
      "name": "epochNumber",
      "outputs": [
        {
          "internalType": "uint256",
          "name": "",
          "type": "uint256"
        }
      ],
      "stateMutability": "view",
      "type": "function"
    },
    {
      "inputs": [],
      "name": "epochProfit",
      "outputs": [
        {
          "internalType": "int256",
          "name": "",
          "type": "int256"
        }
      ],
      "stateMutability": "view",
      "type": "function"
    },
    {
      "inputs": [],
      "name": "epochStartTime",
      "outputs": [
        {
          "internalType": "uint256",
          "name": "",
          "type": "uint256"
        }
      ],
      "stateMutability": "view",
      "type": "function"
    },
    {
      "inputs": [
        {
          "internalType": "uint256",
          "name": "",
          "type": "uint256"
        },
        {
          "internalType": "uint256",
          "name": "",
          "type": "uint256"
        }
      ],
      "name": "epochTips",
      "outputs": [
        {
          "internalType": "address",
          "name": "tipper",
          "type": "address"
        },
        {
          "internalType": "string",
          "name": "content",
          "type": "string"
        },
        {
          "internalType": "uint256",
          "name": "weight",
          "type": "uint256"
        },
        {
          "internalType": "uint256",
          "name": "rawBalance",
          "type": "uint256"
        },
        {
          "internalType": "uint256",
          "name": "epoch",
          "type": "uint256"
        },
        {
          "internalType": "bool",
          "name": "attributed",
          "type": "bool"
        },
        {
          "internalType": "bytes32",
          "name": "tradeId",
          "type": "bytes32"
        },
        {
          "internalType": "bool",
          "name": "isContrarian",
          "type": "bool"
        }
      ],
      "stateMutability": "view",
      "type": "function"
    },
    {
      "inputs": [],
      "name": "exitFeeBps",
      "outputs": [
        {
          "internalType": "uint256",
          "name": "",
          "type": "uint256"
        }
      ],
      "stateMutability": "view",
      "type": "function"
    },
    {
      "inputs": [
        {
          "internalType": "uint256",
          "name": "tipIndex",
          "type": "uint256"
        }
      ],
      "name": "flagContrarian",
      "outputs": [],
      "stateMutability": "nonpayable",
      "type": "function"
    },
    {
      "inputs": [],
      "name": "getDeployableCapital",
      "outputs": [
        {
          "internalType": "uint256",
          "name": "",
          "type": "uint256"
        }
      ],
      "stateMutability": "view",
      "type": "function"
    },
    {
      "inputs": [
        {
          "internalType": "uint256",
          "name": "epoch",
          "type": "uint256"
        }
      ],
      "name": "getEpochTips",
      "outputs": [
        {
          "components": [
            {
              "internalType": "address",
              "name": "tipper",
              "type": "address"
            },
            {
              "internalType": "string",
              "name": "content",
              "type": "string"
            },
            {
              "internalType": "uint256",
              "name": "weight",
              "type": "uint256"
            },
            {
              "internalType": "uint256",
              "name": "rawBalance",
              "type": "uint256"
            },
            {
              "internalType": "uint256",
              "name": "epoch",
              "type": "uint256"
            },
            {
              "internalType": "bool",
              "name": "attributed",
              "type": "bool"
            },
            {
              "internalType": "bytes32",
              "name": "tradeId",
              "type": "bytes32"
            },
            {
              "internalType": "bool",
              "name": "isContrarian",
              "type": "bool"
            }
          ],
          "internalType": "struct AgentVault.Tip[]",
          "name": "",
          "type": "tuple[]"
        }
      ],
      "stateMutability": "view",
      "type": "function"
    },
    {
      "inputs": [],
      "name": "getWhitelistedPairs",
      "outputs": [
        {
          "internalType": "uint256[]",
          "name": "",
          "type": "uint256[]"
        }
      ],
      "stateMutability": "view",
      "type": "function"
    },
    {
      "inputs": [
        {
          "internalType": "address",
          "name": "",
          "type": "address"
        }
      ],
      "name": "maxDeposit",
      "outputs": [
        {
          "internalType": "uint256",
          "name": "",
          "type": "uint256"
        }
      ],
      "stateMutability": "view",
      "type": "function"
    },
    {
      "inputs": [
        {
          "internalType": "address",
          "name": "",
          "type": "address"
        }
      ],
      "name": "maxMint",
      "outputs": [
        {
          "internalType": "uint256",
          "name": "",
          "type": "uint256"
        }
      ],
      "stateMutability": "view",
      "type": "function"
    },
    {
      "inputs": [
        {
          "internalType": "address",
          "name": "owner",
          "type": "address"
        }
      ],
      "name": "maxRedeem",
      "outputs": [
        {
          "internalType": "uint256",
          "name": "",
          "type": "uint256"
        }
      ],
      "stateMutability": "view",
      "type": "function"
    },
    {
      "inputs": [
        {
          "internalType": "address",
          "name": "owner",
          "type": "address"
        }
      ],
      "name": "maxWithdraw",
      "outputs": [
        {
          "internalType": "uint256",
          "name": "",
          "type": "uint256"
        }
      ],
      "stateMutability": "view",
      "type": "function"
    },
    {
      "inputs": [
        {
          "internalType": "uint256",
          "name": "shares",
          "type": "uint256"
        },
        {
          "internalType": "address",
          "name": "receiver",
          "type": "address"
        }
      ],
      "name": "mint",
      "outputs": [
        {
          "internalType": "uint256",
          "name": "",
          "type": "uint256"
        }
      ],
      "stateMutability": "nonpayable",
      "type": "function"
    },
    {
      "inputs": [],
      "name": "name",
      "outputs": [
        {
          "internalType": "string",
          "name": "",
          "type": "string"
        }
      ],
      "stateMutability": "view",
      "type": "function"
    },
    {
      "inputs": [],
      "name": "owner",
      "outputs": [
        {
          "internalType": "address",
          "name": "",
          "type": "address"
        }
      ],
      "stateMutability": "view",
      "type": "function"
    },
    {
      "inputs": [
        {
          "internalType": "uint256",
          "name": "",
          "type": "uint256"
        }
      ],
      "name": "pairWhitelist",
      "outputs": [
        {
          "internalType": "bool",
          "name": "",
          "type": "bool"
        }
      ],
      "stateMutability": "view",
      "type": "function"
    },
    {
      "inputs": [],
      "name": "pause",
      "outputs": [],
      "stateMutability": "nonpayable",
      "type": "function"
    },
    {
      "inputs": [
        {
          "internalType": "uint256",
          "name": "assets",
          "type": "uint256"
        }
      ],
      "name": "previewDeposit",
      "outputs": [
        {
          "internalType": "uint256",
          "name": "",
          "type": "uint256"
        }
      ],
      "stateMutability": "view",
      "type": "function"
    },
    {
      "inputs": [
        {
          "internalType": "uint256",
          "name": "shares",
          "type": "uint256"
        }
      ],
      "name": "previewMint",
      "outputs": [
        {
          "internalType": "uint256",
          "name": "",
          "type": "uint256"
        }
      ],
      "stateMutability": "view",
      "type": "function"
    },
    {
      "inputs": [
        {
          "internalType": "uint256",
          "name": "shares",
          "type": "uint256"
        }
      ],
      "name": "previewRedeem",
      "outputs": [
        {
          "internalType": "uint256",
          "name": "",
          "type": "uint256"
        }
      ],
      "stateMutability": "view",
      "type": "function"
    },
    {
      "inputs": [
        {
          "internalType": "uint256",
          "name": "assets",
          "type": "uint256"
        }
      ],
      "name": "previewWithdraw",
      "outputs": [
        {
          "internalType": "uint256",
          "name": "",
          "type": "uint256"
        }
      ],
      "stateMutability": "view",
      "type": "function"
    },
    {
      "inputs": [
        {
          "internalType": "uint256",
          "name": "maxProcessed",
          "type": "uint256"
        }
      ],
      "name": "processWithdrawals",
      "outputs": [],
      "stateMutability": "nonpayable",
      "type": "function"
    },
    {
      "inputs": [
        {
          "internalType": "uint256",
          "name": "pairIndex",
          "type": "uint256"
        },
        {
          "internalType": "string",
          "name": "rationale",
          "type": "string"
        }
      ],
      "name": "proposePair",
      "outputs": [],
      "stateMutability": "nonpayable",
      "type": "function"
    },
    {
      "inputs": [
        {
          "internalType": "bytes32",
          "name": "tradeId",
          "type": "bytes32"
        },
        {
          "internalType": "int256",
          "name": "pnl",
          "type": "int256"
        }
      ],
      "name": "recordTradePnL",
      "outputs": [],
      "stateMutability": "nonpayable",
      "type": "function"
    },
    {
      "inputs": [
        {
          "internalType": "uint256",
          "name": "shares",
          "type": "uint256"
        },
        {
          "internalType": "address",
          "name": "receiver",
          "type": "address"
        },
        {
          "internalType": "address",
          "name": "owner",
          "type": "address"
        }
      ],
      "name": "redeem",
      "outputs": [
        {
          "internalType": "uint256",
          "name": "",
          "type": "uint256"
        }
      ],
      "stateMutability": "nonpayable",
      "type": "function"
    },
    {
      "inputs": [],
      "name": "renounceOwnership",
      "outputs": [],
      "stateMutability": "nonpayable",
      "type": "function"
    },
    {
      "inputs": [
        {
          "internalType": "uint256",
          "name": "shares",
          "type": "uint256"
        }
      ],
      "name": "requestWithdrawal",
      "outputs": [],
      "stateMutability": "nonpayable",
      "type": "function"
    },
    {
      "inputs": [
        {
          "internalType": "address",
          "name": "_agent",
          "type": "address"
        }
      ],
      "name": "setAgent",
      "outputs": [],
      "stateMutability": "nonpayable",
      "type": "function"
    },
    {
      "inputs": [
        {
          "internalType": "address",
          "name": "_buybackBurner",
          "type": "address"
        }
      ],
      "name": "setBuybackBurner",
      "outputs": [],
      "stateMutability": "nonpayable",
      "type": "function"
    },
    {
      "inputs": [],
      "name": "settleEpoch",
      "outputs": [],
      "stateMutability": "nonpayable",
      "type": "function"
    },
    {
      "inputs": [],
      "name": "startEpoch",
      "outputs": [],
      "stateMutability": "nonpayable",
      "type": "function"
    },
    {
      "inputs": [
        {
          "internalType": "string",
          "name": "content",
          "type": "string"
        }
      ],
      "name": "submitTip",
      "outputs": [],
      "stateMutability": "nonpayable",
      "type": "function"
    },
    {
      "inputs": [],
      "name": "symbol",
      "outputs": [
        {
          "internalType": "string",
          "name": "",
          "type": "string"
        }
      ],
      "stateMutability": "view",
      "type": "function"
    },
    {
      "inputs": [],
      "name": "totalAssets",
      "outputs": [
        {
          "internalType": "uint256",
          "name": "",
          "type": "uint256"
        }
      ],
      "stateMutability": "view",
      "type": "function"
    },
    {
      "inputs": [],
      "name": "totalSupply",
      "outputs": [
        {
          "internalType": "uint256",
          "name": "",
          "type": "uint256"
        }
      ],
      "stateMutability": "view",
      "type": "function"
    },
    {
      "inputs": [
        {
          "internalType": "bytes32",
          "name": "",
          "type": "bytes32"
        }
      ],
      "name": "tradeAttribution",
      "outputs": [
        {
          "internalType": "address",
          "name": "",
          "type": "address"
        }
      ],
      "stateMutability": "view",
      "type": "function"
    },
    {
      "inputs": [
        {
          "internalType": "bytes32",
          "name": "",
          "type": "bytes32"
        }
      ],
      "name": "tradePnL",
      "outputs": [
        {
          "internalType": "int256",
          "name": "",
          "type": "int256"
        }
      ],
      "stateMutability": "view",
      "type": "function"
    },
    {
      "inputs": [
        {
          "internalType": "address",
          "name": "to",
          "type": "address"
        },
        {
          "internalType": "uint256",
          "name": "value",
          "type": "uint256"
        }
      ],
      "name": "transfer",
      "outputs": [
        {
          "internalType": "bool",
          "name": "",
          "type": "bool"
        }
      ],
      "stateMutability": "nonpayable",
      "type": "function"
    },
    {
      "inputs": [
        {
          "internalType": "address",
          "name": "from",
          "type": "address"
        },
        {
          "internalType": "address",
          "name": "to",
          "type": "address"
        },
        {
          "internalType": "uint256",
          "name": "value",
          "type": "uint256"
        }
      ],
      "name": "transferFrom",
      "outputs": [
        {
          "internalType": "bool",
          "name": "",
          "type": "bool"
        }
      ],
      "stateMutability": "nonpayable",
      "type": "function"
    },
    {
      "inputs": [
        {
          "internalType": "address",
          "name": "newOwner",
          "type": "address"
        }
      ],
      "name": "transferOwnership",
      "outputs": [],
      "stateMutability": "nonpayable",
      "type": "function"
    },
    {
      "inputs": [
        {
          "internalType": "uint256",
          "name": "amount",
          "type": "uint256"
        },
        {
          "internalType": "bool",
          "name": "isDeployment",
          "type": "bool"
        },
        {
          "internalType": "int256",
          "name": "pnl",
          "type": "int256"
        }
      ],
      "name": "updateDeployedCapital",
      "outputs": [],
      "stateMutability": "nonpayable",
      "type": "function"
    },
    {
      "inputs": [
        {
          "internalType": "address",
          "name": "",
          "type": "address"
        }
      ],
      "name": "userWithdrawalIndex",
      "outputs": [
        {
          "internalType": "uint256",
          "name": "",
          "type": "uint256"
        }
      ],
      "stateMutability": "view",
      "type": "function"
    },
    {
      "inputs": [
        {
          "internalType": "uint256",
          "name": "assets",
          "type": "uint256"
        },
        {
          "internalType": "address",
          "name": "receiver",
          "type": "address"
        },
        {
          "internalType": "address",
          "name": "owner",
          "type": "address"
        }
      ],
      "name": "withdraw",
      "outputs": [
        {
          "internalType": "uint256",
          "name": "",
          "type": "uint256"
        }
      ],
      "stateMutability": "nonpayable",
      "type": "function"
    },
    {
      "inputs": [
        {
          "internalType": "uint256",
          "name": "",
          "type": "uint256"
        }
      ],
      "name": "withdrawalQueue",
      "outputs": [
        {
          "internalType": "address",
          "name": "user",
          "type": "address"
        },
        {
          "internalType": "uint256",
          "name": "shares",
          "type": "uint256"
        },
        {
          "internalType": "uint256",
          "name": "requestTime",
          "type": "uint256"
        },
        {
          "internalType": "bool",
          "name": "processed",
          "type": "bool"
        }
      ],
      "stateMutability": "view",
      "type": "function"
    }
  ],
  "bytecode": "0x60e060405262093a80600b556064600d5534801561001b575f5ffd5b5060405161383138038061383183398101604081905261003a916103ad565b33836040518060400160405280600f81526020016e1059d95b9d13595b594815985d5b1d608a1b81525060405180604001604052806007815260200166185b55985d5b1d60ca1b8152508160039081610093919061048f565b5060046100a0828261048f565b5050505f5f6100b48361029360201b60201c565b91509150816100c45760126100c6565b805b60ff1660a05250506001600160a01b03908116608052811661010257604051631e4fbdf760e01b81525f60048201526024015b60405180910390fd5b61010b81610324565b5060017f9b779b17422d0df92223018b32b4d1fa46e071723d6817e2486d003becc55f00556001600160a01b0382166101865760405162461bcd60e51b815260206004820152601560248201527f496e76616c696420746f6b656e2061646472657373000000000000000000000060448201526064016100f9565b6001600160a01b0381166101dc5760405162461bcd60e51b815260206004820152601560248201527f496e76616c6964206167656e742061646472657373000000000000000000000060448201526064016100f9565b6001600160a01b0391821660c052600780546001600160a01b031916919092161790555060116020527f4ad3b33220dddc71b994a52d72c06b10862965f7d926534c05c00fb7e819e7b7805460ff1990811660019081179092557f17bc176d2408558f6e4111feebc3cab4e16b63e967be91cde721f4c8a488b552805482168317905560025f527f08037d7b151cc412d25674a4e66b334d9ae9d2e5517a7feaae5cdb828bf1c62880549091169091179055610549565b5f808061029f60405190565b6040805160048152602481019091526020810180516001600160e01b0390811663313ce56760e01b179091529192505f9182916102df9188919061037516565b5090925090506102ee83604052565b8180156102fc575060203d10155b8015610309575060ff8111155b610314575f5f610318565b6001815b94509450505050915091565b600580546001600160a01b038381166001600160a01b0319831681179093556040519116919082907f8be0079c531659141344cd1fd0a4f28419497f9722a3daafe3b4186f6b6457e0905f90a35050565b5f5f5f60405f855160208701885afa92505f51915060205190509250925092565b6001600160a01b03811681146103aa575f5ffd5b50565b5f5f5f606084860312156103bf575f5ffd5b83516103ca81610396565b60208501519093506103db81610396565b60408501519092506103ec81610396565b809150509250925092565b634e487b7160e01b5f52604160045260245ffd5b600181811c9082168061041f57607f821691505b60208210810361043d57634e487b7160e01b5f52602260045260245ffd5b50919050565b601f82111561048a57805f5260205f20601f840160051c810160208510156104685750805b601f840160051c820191505b81811015610487575f8155600101610474565b50505b505050565b81516001600160401b038111156104a8576104a86103f7565b6104bc816104b6845461040b565b84610443565b6020601f8211600181146104ee575f83156104d75750848201515b5f19600385901b1c1916600184901b178455610487565b5f84815260208120601f198516915b8281101561051d57878501518255602094850194600190920191016104fd565b508482101561053a57868401515f19600387901b60f8161c191681555b50505050600190811b01905550565b60805160a05160c0516132866105ab5f395f818161086401528181610f0b01528181610fe2015261121d01525f610cc501525f8181610535015281816108c101528181610b670152818161193501528181612727015261278701526132865ff3fe608060405234801561000f575f5ffd5b50600436106103b4575f3560e01c806394bf804d116101f5578063c5ba7d4311610114578063d905777e116100a9578063f2fde38b11610079578063f2fde38b14610886578063f4145a8314610899578063f5ff5c76146108a2578063f60ca641146108b5575f5ffd5b8063d905777e14610814578063dd62ed3e14610827578063ef8b30f714610776578063f0ea15e41461085f575f5ffd5b8063cbd54b99116100e4578063cbd54b99146107c8578063ce96cb77146107dd578063d59dd283146107f0578063d715253914610803575f5ffd5b8063c5ba7d4314610763578063c63d75b614610559578063c6e6f59214610776578063c822adda14610789575f5ffd5b8063b0c660ee1161018a578063ba0876521161015a578063ba08765214610708578063bcf685ed1461071b578063c0100c8a1461072e578063c2bf897114610750575f5ffd5b8063b0c660ee146106d1578063b3d7f6b9146106da578063b460af94146106ed578063b6b385f714610700575f5ffd5b8063a2c8b177116101c5578063a2c8b17714610678578063a307949a14610680578063a9059cbb1461069f578063aa4fd454146106b2575f5ffd5b806394bf804d1461062a57806395d89b411461063d5780639815e994146106455780639ee679e814610665575f5ffd5b8063344e74b2116102e157806370a0823111610276578063769f37a911610246578063769f37a9146105eb57806382d14fd9146105fe5780638456cb59146106115780638da5cb5b14610619575f5ffd5b806370a082311461059f578063715018a6146105c757806373ae5db3146105cf5780637430414a146105d8575f5ffd5b80634cdad506116102b15780634cdad506146103e85780634ff0876a1461057a57806357b17a52146105835780636e553f651461058c575f5ffd5b8063344e74b21461052057806338d52e0f14610533578063402d267d14610559578063429536fd1461056d575f5ffd5b806313ae93021161035757806323b872dd1161032757806323b872dd146104b9578063313ce567146104cc578063326a183b146104e6578063333463ba146104f9575f5ffd5b806313ae93021461044e57806314265c6c1461045e578063152fcb0c1461049e57806318160ddd146104b1575f5ffd5b806308b4a9941161039257806308b4a994146103fb578063095ea7b3146104035780630a28a477146104265780630bdcee0114610439575f5ffd5b806301e1d114146103b857806306fdde03146103d357806307a2d13a146103e8575b5f5ffd5b6103c06108be565b6040519081526020015b60405180910390f35b6103db61094d565b6040516103ca9190612a1e565b6103c06103f6366004612a30565b6109dd565b6103c06109ee565b610416610411366004612a62565b610a1d565b60405190151581526020016103ca565b6103c0610434366004612a30565b610a34565b61044c610447366004612a30565b610a40565b005b6103c0683635c9adc5dea0000081565b61048661046c366004612a30565b600f6020525f90815260409020546001600160a01b031681565b6040516001600160a01b0390911681526020016103ca565b61044c6104ac366004612a30565b610a9f565b6002546103c0565b6104166104c7366004612a8a565b610c99565b6104d4610cbe565b60405160ff90911681526020016103ca565b61044c6104f4366004612ac4565b610ce9565b61050c610507366004612ac4565b610d25565b6040516103ca989796959493929190612ae4565b61044c61052e366004612b3c565b610e1c565b7f0000000000000000000000000000000000000000000000000000000000000000610486565b6103c0610567366004612b3c565b505f1990565b6009546104169060ff1681565b6103c0600b5481565b6103c0600d5481565b6103c061059a366004612b55565b610e93565b6103c06105ad366004612b3c565b6001600160a01b03165f9081526020819052604090205490565b61044c610eb6565b6103c060145481565b61044c6105e6366004612bc4565b610ec9565b61044c6105f9366004612c03565b611206565b600654610486906001600160a01b031681565b61044c611307565b6005546001600160a01b0316610486565b6103c0610638366004612b55565b61131b565b6103db611336565b610658610653366004612a30565b611345565b6040516103ca9190612c4b565b61044c610673366004612a30565b6114a8565b61044c6116c6565b6103c061068e366004612b3c565b60136020525f908152604090205481565b6104166106ad366004612a62565b6117a6565b6103c06106c0366004612a30565b60106020525f908152604090205481565b6103c0600c5481565b6103c06106e8366004612a30565b6117b3565b6103c06106fb366004612d1a565b6117bf565b61044c611815565b6103c0610716366004612d1a565b611a30565b61044c610729366004612b3c565b611a7d565b61041661073c366004612a30565b60116020525f908152604090205460ff1681565b61044c61075e366004612a30565b611aef565b61044c610771366004612d60565b611c2e565b6103c0610784366004612a30565b611d7d565b61079c610797366004612a30565b611d88565b604080516001600160a01b039095168552602085019390935291830152151560608201526080016103ca565b6107d0611dcd565b6040516103ca9190612d84565b6103c06107eb366004612b3c565b611ee3565b61044c6107fe366004612dc6565b611ef0565b6103c069021e19e0c9bab240000081565b6103c0610822366004612b3c565b612041565b6103c0610835366004612de8565b6001600160a01b039182165f90815260016020908152604080832093909416825291909152205490565b6104867f000000000000000000000000000000000000000000000000000000000000000081565b61044c610894366004612b3c565b61205e565b6103c060085481565b600754610486906001600160a01b031681565b6103c0600a5481565b5f7f00000000000000000000000000000000000000000000000000000000000000006040516370a0823160e01b81523060048201526001600160a01b0391909116906370a0823190602401602060405180830381865afa158015610924573d5f5f3e3d5ffd5b505050506040513d601f19601f820116820180604052508101906109489190612e10565b905090565b60606003805461095c90612e27565b80601f016020809104026020016040519081016040528092919081815260200182805461098890612e27565b80156109d35780601f106109aa576101008083540402835291602001916109d3565b820191905f5260205f20905b8154815290600101906020018083116109b657829003601f168201915b5050505050905090565b5f6109e8825f612098565b92915050565b5f5f6109f86108be565b905080600c5410610a0a575f91505090565b600c54610a179082612e73565b91505090565b5f33610a2a8185856120d0565b5060019392505050565b5f6109e88260016120dd565b610a4861210c565b5f8181526011602052604090819020805460ff191660011790555181907f42d05a445999aa4b905bdaa80bc133a1ba54efe95447376135c0a97377723f1590610a949042815260200190565b60405180910390a250565b6007546001600160a01b03163314610aca57604051637362044160e01b815260040160405180910390fd5b610ad2612139565b5f805b60125481108015610ae557508282105b15610c7e575f60128281548110610afe57610afe612e86565b5f9182526020909120600490910201600381015490915060ff16610c6b575f610b2a82600101546109dd565b90505f612710600d5483610b3e9190612e9a565b610b489190612ec5565b90505f610b558284612e73565b9050610b65308560010154612154565b7f0000000000000000000000000000000000000000000000000000000000000000845460405163a9059cbb60e01b81526001600160a01b0391821660048201526024810184905291169063a9059cbb906044016020604051808303815f875af1158015610bd4573d5f5f3e3d5ffd5b505050506040513d601f19601f82011682018060405250810190610bf89190612ed8565b5060038401805460ff1916600117905585610c1281612ef3565b85546001870154604080519182526020820186905242908201529198506001600160a01b031691507fbe1e8e357f01b865f7bbd4055ed6fbaf1e3029820a3051bc7157277b813022b99060600160405180910390a25050505b5080610c7681612ef3565b915050610ad5565b5050610c9660015f5160206132315f395f51905f5255565b50565b5f33610ca6858285612188565b610cb18585856121f1565b60019150505b9392505050565b5f610948817f0000000000000000000000000000000000000000000000000000000000000000612f0b565b6007546001600160a01b03163314610d1457604051637362044160e01b815260040160405180910390fd5b5f9182526010602052604090912055565b600e602052815f5260405f208181548110610d3e575f80fd5b5f918252602090912060089091020180546001820180546001600160a01b039092169450919250610d6e90612e27565b80601f0160208091040260200160405190810160405280929190818152602001828054610d9a90612e27565b8015610de55780601f10610dbc57610100808354040283529160200191610de5565b820191905f5260205f20905b815481529060010190602001808311610dc857829003601f168201915b505050600284015460038501546004860154600587015460068801546007909801549697939692955090935060ff90811692911688565b610e2461210c565b6001600160a01b038116610e715760405162461bcd60e51b815260206004820152600f60248201526e496e76616c6964206164647265737360881b60448201526064015b60405180910390fd5b600680546001600160a01b0319166001600160a01b0392909216919091179055565b5f5f195f610ea085611d7d565b9050610eae3385878461224e565b949350505050565b610ebe61210c565b610ec75f6122b0565b565b610ed1612139565b60095460ff16610ef45760405163a5b38bdd60e01b815260040160405180910390fd5b6040516370a0823160e01b81523360048201525f907f00000000000000000000000000000000000000000000000000000000000000006001600160a01b0316906370a0823190602401602060405180830381865afa158015610f58573d5f5f3e3d5ffd5b505050506040513d601f19601f82011682018060405250810190610f7c9190612e10565b9050683635c9adc5dea00000811015610fa8576040516378dbf0af60e11b815260040160405180910390fd5b6101f4821115610fcb5760405163fcd8dba560e01b815260040160405180910390fd5b60405163e7acdec360e01b81523360048201525f907f00000000000000000000000000000000000000000000000000000000000000006001600160a01b03169063e7acdec390602401602060405180830381865afa15801561102f573d5f5f3e3d5ffd5b505050506040513d601f19601f820116820180604052508101906110539190612e10565b90505f60646110628385612e9a565b61106c9190612ec5565b9050600e5f60085481526020019081526020015f20604051806101000160405280336001600160a01b0316815260200187878080601f0160208091040260200160405190810160405280939291908181526020018383808284375f9201829052509385525050506020808301869052604083018890526008805460608501526080840183905260a0840183905260c09093018290528454600180820187559583529181902084519290930290920180546001600160a01b0319166001600160a01b0390921691909117815590820151919290919082019061114d9082612fa4565b506040828101516002830155606083015160038301556080830151600483015560a083015160058301805491151560ff1992831617905560c0840151600684015560e090930151600790920180549215159290931691909117909155600854905133917f1740d23a81116e9e5004d5b758c748cf353a53f38c83c3c3018622ee96e911d4916111e191899189918791613087565b60405180910390a250505061120260015f5160206132315f395f51905f5255565b5050565b6040516370a0823160e01b81523360048201525f907f00000000000000000000000000000000000000000000000000000000000000006001600160a01b0316906370a0823190602401602060405180830381865afa15801561126a573d5f5f3e3d5ffd5b505050506040513d601f19601f8201168201806040525081019061128e9190612e10565b905069021e19e0c9bab24000008110156112bb576040516378dbf0af60e11b815260040160405180910390fd5b336001600160a01b0316847f28f4be3faa792c10ad69e3ea15ea61db8e8db27867e86ad20871579925b395268585426040516112f9939291906130ad565b60405180910390a350505050565b61130f61210c565b6009805460ff19169055565b5f5f195f611328856117b3565b9050610eae3385838861224e565b60606004805461095c90612e27565b6060600e5f8381526020019081526020015f20805480602002602001604051908101604052809291908181526020015f905b8282101561149d575f8481526020908190206040805161010081019091526008850290910180546001600160a01b0316825260018101805492939192918401916113c090612e27565b80601f01602080910402602001604051908101604052809291908181526020018280546113ec90612e27565b80156114375780601f1061140e57610100808354040283529160200191611437565b820191905f5260205f20905b81548152906001019060200180831161141a57829003601f168201915b505050918352505060028201546020808301919091526003830154604083015260048301546060830152600583015460ff90811615156080840152600684015460a0840152600790930154909216151560c0909101529082526001929092019101611377565b505050509050919050565b6114b0612139565b5f81116114f45760405162461bcd60e51b81526020600482015260126024820152710536861726573206d757374206265203e20360741b6044820152606401610e68565b335f908152602081905260409020548111156115485760405162461bcd60e51b8152602060048201526013602482015272496e73756666696369656e742073686172657360681b6044820152606401610e68565b6115533330836121f1565b6040805160808101825233815260208101838152429282019283525f6060830181815260128054600180820183559382905294517fbb8a6a4669ba250d26cd7a459eca9d215f8307e33aebe50379bc5a3617ec3444600490960295860180546001600160a01b0319166001600160a01b0390921691909117905592517fbb8a6a4669ba250d26cd7a459eca9d215f8307e33aebe50379bc5a3617ec344585015593517fbb8a6a4669ba250d26cd7a459eca9d215f8307e33aebe50379bc5a3617ec344684015592517fbb8a6a4669ba250d26cd7a459eca9d215f8307e33aebe50379bc5a3617ec3447909201805460ff1916921515929092179091555461165a9190612e73565b335f81815260136020526040908190209290925590517f24b91f4f47caf44230a57777a9be744924e82bf666f2d5702faf97df35e60f9f906116a89084904290918252602082015260400190565b60405180910390a2610c9660015f5160206132315f395f51905f5255565b6007546001600160a01b031633146116f157604051637362044160e01b815260040160405180910390fd5b60095460ff161561173b5760405162461bcd60e51b815260206004820152601460248201527345706f636820616c72656164792061637469766560601b6044820152606401610e68565b60088054905f61174a83612ef3565b90915550506009805460ff1916600117905542600a8190555f60145560085460405190917f41787f1277821474072e18df95f0bd9ed9f117003aa97732ebbd737225b32b029161179c91815260200190565b60405180910390a2565b5f33610a2a8185856121f1565b5f6109e8826001612098565b5f5f6117ca83611ee3565b9050808511156117f357828582604051633fa733bb60e21b8152600401610e6893929190612f24565b5f6117fd86610a34565b905061180c3386868985612301565b95945050505050565b6007546001600160a01b0316331461184057604051637362044160e01b815260040160405180910390fd5b611848612139565b60095460ff1661186b5760405163a5b38bdd60e01b815260040160405180910390fd5b600c54156118c55760405162461bcd60e51b815260206004820152602160248201527f43616e6e6f7420736574746c652077697468206f70656e20706f736974696f6e6044820152607360f81b6064820152608401610e68565b6009805460ff191690556014545f12156119dc576014545f6127106118ec836104b0612e9a565b6118f69190612ec5565b90505f6127106119088461012c612e9a565b6119129190612ec5565b6006549091506001600160a01b03161580159061192e57505f82115b156119c9577f000000000000000000000000000000000000000000000000000000000000000060065460405163095ea7b360e01b81526001600160a01b0391821660048201526024810185905291169063095ea7b3906044016020604051808303815f875af11580156119a3573d5f5f3e3d5ffd5b505050506040513d601f19601f820116820180604052508101906119c79190612ed8565b505b80156119d8576119d8816123a0565b5050505b600854601454604080519182524260208301527f2d8f8db7fbfa12fe7bf24542012ebba583e95870e8bcd9e170829fb8817fda12910160405180910390a2610ec760015f5160206132315f395f51905f5255565b5f5f611a3b83612041565b905080851115611a6457828582604051632e52afbb60e21b8152600401610e6893929190612f24565b5f611a6e866109dd565b905061180c338686848a612301565b611a8561210c565b6001600160a01b038116611acd5760405162461bcd60e51b815260206004820152600f60248201526e496e76616c6964206164647265737360881b6044820152606401610e68565b600780546001600160a01b0319166001600160a01b0392909216919091179055565b6007546001600160a01b03163314611b1a57604051637362044160e01b815260040160405180910390fd5b6008545f908152600e60205260409020548110611b6d5760405162461bcd60e51b8152602060048201526011602482015270092dcecc2d8d2c840e8d2e040d2dcc8caf607b1b6044820152606401610e68565b6001600e5f60085481526020019081526020015f208281548110611b9357611b93612e86565b5f9182526020808320600892830201600701805460ff191694151594909417909355548152600e90915260409020805482908110611bd357611bd3612e86565b5f91825260209091206008918202015490546040516001600160a01b03909216917f658b5762ab09f4b89bca94b3a16289d278310d955ce552838a71c5c6ac12991690611c239085815260200190565b60405180910390a350565b6007546001600160a01b03163314611c5957604051637362044160e01b815260040160405180910390fd5b8115611d0a57611c676109ee565b831115611cb65760405162461bcd60e51b815260206004820152601f60248201527f496e73756666696369656e74206465706c6f7961626c65206361706974616c006044820152606401610e68565b82600c5f828254611cc791906130d0565b9091555050604080518481524260208201527fc6e8246d042e5db83fca19cc5e44ba05af1bef259f946ff634a5431a7923aaa391015b60405180910390a1505050565b82600c5f828254611d1b9190612e73565b925050819055508060145f828254611d3391906130e3565b9091555050604080518481526020810183905242918101919091527f5b9a3ed6800c3a901bddd3f1ff0993d12bd4e3ad00acd9b4e0cede4104d8726890606001611cfd565b505050565b5f6109e8825f6120dd565b60128181548110611d97575f80fd5b5f91825260209091206004909102018054600182015460028301546003909301546001600160a01b039092169350919060ff1684565b604080516064808252610ca082019092526060915f919060208201610c80803683370190505090505f805b6064811015611e4b575f8181526011602052604090205460ff1615611e435780838381518110611e2a57611e2a612e86565b602090810291909101015281611e3f81612ef3565b9250505b600101611df8565b505f8167ffffffffffffffff811115611e6657611e66612f45565b604051908082528060200260200182016040528015611e8f578160200160208202803683370190505b5090505f5b82811015611edb57838181518110611eae57611eae612e86565b6020026020010151828281518110611ec857611ec8612e86565b6020908102919091010152600101611e94565b509392505050565b5f6109e86103f683612041565b6007546001600160a01b03163314611f1b57604051637362044160e01b815260040160405180910390fd5b5f838152600f60205260409020546001600160a01b031615611f50576040516301e0323b60e01b815260040160405180910390fd5b5f838152600f6020908152604080832080546001600160a01b0319166001600160a01b0387161790556008548352600e909152902080546001919083908110611f9b57611f9b612e86565b905f5260205f2090600802016005015f6101000a81548160ff02191690831515021790555082600e5f60085481526020019081526020015f208281548110611fe557611fe5612e86565b905f5260205f20906008020160060181905550816001600160a01b0316837f779b2e6c5e278f30933a17106dd4228340efc52e02a44f3b2174b301106324208360405161203491815260200190565b60405180910390a3505050565b6001600160a01b0381165f908152602081905260408120546109e8565b61206661210c565b6001600160a01b03811661208f57604051631e4fbdf760e01b81525f6004820152602401610e68565b610c96816122b0565b5f610cb76120a46108be565b6120af9060016130d0565b6120ba5f600a6131ed565b6002546120c791906130d0565b859190856124e7565b611d788383836001612529565b5f610cb76120ec82600a6131ed565b6002546120f991906130d0565b6121016108be565b6120c79060016130d0565b6005546001600160a01b03163314610ec75760405163118cdaa760e01b8152336004820152602401610e68565b6121416125ed565b60025f5160206132315f395f51905f5255565b6001600160a01b03821661217d57604051634b637e8f60e11b81525f6004820152602401610e68565b611202825f8361261c565b6001600160a01b038381165f908152600160209081526040808320938616835292905220545f198110156121eb57818110156121dd57828183604051637dc7a0d960e11b8152600401610e6893929190612f24565b6121eb84848484035f612529565b50505050565b6001600160a01b03831661221a57604051634b637e8f60e11b81525f6004820152602401610e68565b6001600160a01b0382166122435760405163ec442f0560e01b81525f6004820152602401610e68565b611d7883838361261c565b6122588483612722565b612262838261274e565b826001600160a01b0316846001600160a01b03167fdcbc1c05240f31ff3ad067ef1ee35ce4997762752e3a095284754544f4c709d784846040516112f9929190918252602082015260400190565b600580546001600160a01b038381166001600160a01b0319831681179093556040519116919082907f8be0079c531659141344cd1fd0a4f28419497f9722a3daafe3b4186f6b6457e0905f90a35050565b826001600160a01b0316856001600160a01b03161461232557612325838683612188565b61232f8382612154565b6123398483612782565b826001600160a01b0316846001600160a01b0316866001600160a01b03167ffbde797d201c681b91056529119e0b02407c7bb96a4a2c75c01fc9667232c8db8585604051612391929190918252602082015260400190565b60405180910390a45050505050565b6008545f908152600e6020526040812090805b825481101561249f578281815481106123ce576123ce612e86565b5f91825260209091206005600890920201015460ff1615612497575f8382815481106123fc576123fc612e86565b905f5260205f2090600802016006015490505f60105f8381526020019081526020015f20541315612495575f84838154811061243a5761243a612e86565b905f5260205f20906008020160020154905084838154811061245e5761245e612e86565b5f91825260209091206007600890920201015460ff161561248757612484600282612e9a565b90505b61249181856130d0565b9350505b505b6001016123b3565b50805f036124ac57505050565b6008546040518481527f61a367237d752b5b28b1b2541b33f1c758aede95f0cd4404813c16be5788185f9060200160405180910390a2505050565b5f6125146124f4836127ad565b801561250f57505f848061250a5761250a612eb1565b868809115b151590565b61251f8686866127d9565b61180c91906130d0565b6001600160a01b0384166125525760405163e602df0560e01b81525f6004820152602401610e68565b6001600160a01b03831661257b57604051634a1406b160e11b81525f6004820152602401610e68565b6001600160a01b038085165f90815260016020908152604080832093871683529290522082905580156121eb57826001600160a01b0316846001600160a01b03167f8c5be1e5ebec7d5bd14f71427d1e84f3dd0314c0f7b2291e5b200ac8c7c3b925846040516112f991815260200190565b5f5160206132315f395f51905f5254600203610ec757604051633ee5aeb560e01b815260040160405180910390fd5b6001600160a01b038316612646578060025f82825461263b91906130d0565b909155506126a39050565b6001600160a01b0383165f90815260208190526040902054818110156126855783818360405163391434e360e21b8152600401610e6893929190612f24565b6001600160a01b0384165f9081526020819052604090209082900390555b6001600160a01b0382166126bf576002805482900390556126dd565b6001600160a01b0382165f9081526020819052604090208054820190555b816001600160a01b0316836001600160a01b03167fddf252ad1be2c89b69c2b068fc378daa952ba7f163c4a11628f55a4df523b3ef8360405161203491815260200190565b6112027f0000000000000000000000000000000000000000000000000000000000000000833084612889565b6001600160a01b0382166127775760405163ec442f0560e01b81525f6004820152602401610e68565b6112025f838361261c565b6112027f000000000000000000000000000000000000000000000000000000000000000083836128bf565b5f60028260038111156127c2576127c26131fb565b6127cc919061320f565b60ff166001149050919050565b5f5f5f6127e686866128f4565b91509150815f0361280a5783818161280057612800612eb1565b0492505050610cb7565b818411612821576128216003851502601118612910565b5f848688095f868103871696879004966002600389028118808a02820302808a02820302808a02820302808a02820302808a02820302808a02909103029181900381900460010185841190960395909502919093039390930492909217029150509392505050565b612897848484846001612921565b6121eb57604051635274afe760e01b81526001600160a01b0385166004820152602401610e68565b6128cc838383600161298e565b611d7857604051635274afe760e01b81526001600160a01b0384166004820152602401610e68565b5f805f1983850993909202808410938190039390930393915050565b634e487b715f52806020526024601cfd5b6040516323b872dd60e01b5f8181526001600160a01b038781166004528616602452604485905291602083606481808c5af1925060015f5114831661297d578383151615612971573d5f823e3d81fd5b5f883b113d1516831692505b604052505f60605295945050505050565b60405163a9059cbb60e01b5f8181526001600160a01b038616600452602485905291602083604481808b5af1925060015f511483166129e45783831516156129d8573d5f823e3d81fd5b5f873b113d1516831692505b60405250949350505050565b5f81518084528060208401602086015e5f602082860101526020601f19601f83011685010191505092915050565b602081525f610cb760208301846129f0565b5f60208284031215612a40575f5ffd5b5035919050565b80356001600160a01b0381168114612a5d575f5ffd5b919050565b5f5f60408385031215612a73575f5ffd5b612a7c83612a47565b946020939093013593505050565b5f5f5f60608486031215612a9c575f5ffd5b612aa584612a47565b9250612ab360208501612a47565b929592945050506040919091013590565b5f5f60408385031215612ad5575f5ffd5b50508035926020909101359150565b6001600160a01b0389168152610100602082018190525f90612b089083018a6129f0565b6040830198909852506060810195909552608085019390935290151560a084015260c0830152151560e09091015292915050565b5f60208284031215612b4c575f5ffd5b610cb782612a47565b5f5f60408385031215612b66575f5ffd5b82359150612b7660208401612a47565b90509250929050565b5f5f83601f840112612b8f575f5ffd5b50813567ffffffffffffffff811115612ba6575f5ffd5b602083019150836020828501011115612bbd575f5ffd5b9250929050565b5f5f60208385031215612bd5575f5ffd5b823567ffffffffffffffff811115612beb575f5ffd5b612bf785828601612b7f565b90969095509350505050565b5f5f5f60408486031215612c15575f5ffd5b83359250602084013567ffffffffffffffff811115612c32575f5ffd5b612c3e86828701612b7f565b9497909650939450505050565b5f602082016020835280845180835260408501915060408160051b8601019250602086015f5b82811015612d0e57868503603f19018452815180516001600160a01b0316865260208082015161010091880182905290612cad908801826129f0565b905060408201516040880152606082015160608801526080820151608088015260a0820151151560a088015260c082015160c088015260e08201519150612cf860e088018315159052565b9550506020938401939190910190600101612c71565b50929695505050505050565b5f5f5f60608486031215612d2c575f5ffd5b83359250612d3c60208501612a47565b9150612d4a60408501612a47565b90509250925092565b8015158114610c96575f5ffd5b5f5f5f60608486031215612d72575f5ffd5b833592506020840135612ab381612d53565b602080825282518282018190525f918401906040840190835b81811015612dbb578351835260209384019390920191600101612d9d565b509095945050505050565b5f5f5f60608486031215612dd8575f5ffd5b83359250612ab360208501612a47565b5f5f60408385031215612df9575f5ffd5b612e0283612a47565b9150612b7660208401612a47565b5f60208284031215612e20575f5ffd5b5051919050565b600181811c90821680612e3b57607f821691505b602082108103612e5957634e487b7160e01b5f52602260045260245ffd5b50919050565b634e487b7160e01b5f52601160045260245ffd5b818103818111156109e8576109e8612e5f565b634e487b7160e01b5f52603260045260245ffd5b80820281158282048414176109e8576109e8612e5f565b634e487b7160e01b5f52601260045260245ffd5b5f82612ed357612ed3612eb1565b500490565b5f60208284031215612ee8575f5ffd5b8151610cb781612d53565b5f60018201612f0457612f04612e5f565b5060010190565b60ff81811683821601908111156109e8576109e8612e5f565b6001600160a01b039390931683526020830191909152604082015260600190565b634e487b7160e01b5f52604160045260245ffd5b601f821115611d7857805f5260205f20601f840160051c81016020851015612f7e5750805b601f840160051c820191505b81811015612f9d575f8155600101612f8a565b5050505050565b815167ffffffffffffffff811115612fbe57612fbe612f45565b612fd281612fcc8454612e27565b84612f59565b6020601f821160018114613004575f8315612fed5750848201515b5f19600385901b1c1916600184901b178455612f9d565b5f84815260208120601f198516915b828110156130335787850151825560209485019460019092019101613013565b508482101561305057868401515f19600387901b60f8161c191681555b50505050600190811b01905550565b81835281816020850137505f828201602090810191909152601f909101601f19169091010190565b606081525f61309a60608301868861305f565b6020830194909452506040015292915050565b604081525f6130c060408301858761305f565b9050826020830152949350505050565b808201808211156109e8576109e8612e5f565b8082018281125f83128015821682158216171561310257613102612e5f565b505092915050565b6001815b60018411156131455780850481111561312957613129612e5f565b600184161561313757908102905b60019390931c92800261310e565b935093915050565b5f8261315b575060016109e8565b8161316757505f6109e8565b816001811461317d5760028114613187576131a3565b60019150506109e8565b60ff84111561319857613198612e5f565b50506001821b6109e8565b5060208310610133831016604e8410600b84101617156131c6575081810a6109e8565b6131d25f19848461310a565b805f19048211156131e5576131e5612e5f565b029392505050565b5f610cb760ff84168361314d565b634e487b7160e01b5f52602160045260245ffd5b5f60ff83168061322157613221612eb1565b8060ff8416069150509291505056fe9b779b17422d0df92223018b32b4d1fa46e071723d6817e2486d003becc55f00a26469706673582212206a81e4ebad852b89dce9e65559a71e50ead20a1ed9e0dc52eb99857b12d24e6664736f6c634300081c0033",
  "linkReferences": {},
  "deployedLinkReferences": {},
  "immutableReferences": {
    "1164": [
      {
        "length": 32,
        "start": 1333
      },
      {
        "length": 32,
        "start": 2241
      },
      {
        "length": 32,
        "start": 2919
      },
      {
        "length": 32,
        "start": 6453
      },
      {
        "length": 32,
        "start": 10023
      },
      {
        "length": 32,
        "start": 10119
      }
    ],
    "1166": [
      {
        "length": 32,
        "start": 3269
      }
    ],
    "6661": [
      {
        "length": 32,
        "start": 2148
      },
      {
        "length": 32,
        "start": 3851
      },
      {
        "length": 32,
        "start": 4066
      },
      {
        "length": 32,
        "start": 4637
      }
    ]
  },
  "inputSourceName": "project/contracts/AgentVault.sol",
  "buildInfoId": "solc-0_8_28-80d4dc7db340dc345f54e0d501aec4e37deaafb0"
}